{
  "contractName": "EIP712",
  "abi": [
    {
      "constant": true,
      "inputs": [],
      "name": "DOMAIN_SEPARATOR",
      "outputs": [
        {
          "name": "",
          "type": "bytes32"
        }
      ],
      "payable": false,
      "stateMutability": "view",
      "type": "function"
    },
    {
      "constant": true,
      "inputs": [],
      "name": "EIP712_DOMAIN_TYPEHASH",
      "outputs": [
        {
          "name": "",
          "type": "bytes32"
        }
      ],
      "payable": false,
      "stateMutability": "view",
      "type": "function"
    },
    {
      "inputs": [],
      "payable": false,
      "stateMutability": "nonpayable",
      "type": "constructor"
    }
  ],
  "bytecode": "0x608060405234801561001057600080fd5b5060405160200180807f454950373132446f6d61696e28737472696e67206e616d65290000000000000081525060190190506040516020818303038152906040526040518082805190602001908083835b6020831015156100865780518252602082019150602081019050602083039250610061565b6001836020036101000a03801982511681845116808217855250505050505090500191505060405180910390206040805190810160405280600e81526020017f487964726f2050726f746f636f6c0000000000000000000000000000000000008152506040518082805190602001908083835b60208310151561011e57805182526020820191506020810190506020830392506100f9565b6001836020036101000a03801982511681845116808217855250505050505090500191505060405180910390206040516020018083600019166000191681526020018260001916600019168152602001925050506040516020818303038152906040526040518082805190602001908083835b6020831015156101b65780518252602082019150602081019050602083039250610191565b6001836020036101000a03801982511681845116808217855250505050505090500191505060405180910390206000816000191690555061018e806101fc6000396000f30060806040526004361061004c576000357c0100000000000000000000000000000000000000000000000000000000900463ffffffff1680633644e51514610051578063c7977be714610084575b600080fd5b34801561005d57600080fd5b506100666100b7565b60405180826000191660001916815260200191505060405180910390f35b34801561009057600080fd5b506100996100bd565b60405180826000191660001916815260200191505060405180910390f35b60005481565b60405160200180807f454950373132446f6d61696e28737472696e67206e616d65290000000000000081525060190190506040516020818303038152906040526040518082805190602001908083835b602083101515610132578051825260208201915060208101905060208303925061010d565b6001836020036101000a0380198251168184511680821785525050505050509050019150506040518091039020815600a165627a7a72305820b91d924b534603af9959741ed9f8fa7753a145fd9f8f09a543be0b73fec7289f0029",
  "source": "/*\n\n    Copyright 2018 The Hydro Protocol Foundation\n\n    Licensed under the Apache License, Version 2.0 (the \"License\");\n    you may not use this file except in compliance with the License.\n    You may obtain a copy of the License at\n\n        http://www.apache.org/licenses/LICENSE-2.0\n\n    Unless required by applicable law or agreed to in writing, software\n    distributed under the License is distributed on an \"AS IS\" BASIS,\n    WITHOUT WARRANTIES OR CONDITIONS OF ANY KIND, either express or implied.\n    See the License for the specific language governing permissions and\n    limitations under the License.\n\n*/\n\npragma solidity ^0.4.24;\n\n/**\n * EIP712 Ethereum typed structured data hashing and signing\n */\ncontract EIP712 {\n    string internal constant DOMAIN_NAME = \"Hydro Protocol\";\n\n    /**\n     * Hash of the EIP712 Domain Separator Schema\n     */\n    bytes32 public constant EIP712_DOMAIN_TYPEHASH = keccak256(\n        abi.encodePacked(\"EIP712Domain(string name)\")\n    );\n\n    bytes32 public DOMAIN_SEPARATOR;\n\n    constructor () public {\n        DOMAIN_SEPARATOR = keccak256(\n            abi.encodePacked(\n                EIP712_DOMAIN_TYPEHASH,\n                keccak256(bytes(DOMAIN_NAME))\n            )\n        );\n    }\n\n    /**\n     * Calculates EIP712 encoding for a hash struct in this EIP712 Domain.\n     *\n     * @param eip712hash The EIP712 hash struct.\n     * @return EIP712 hash applied to this EIP712 Domain.\n     */\n    function hashEIP712Message(bytes32 eip712hash) internal view returns (bytes32) {\n        return keccak256(abi.encodePacked(\"\\x19\\x01\", DOMAIN_SEPARATOR, eip712hash));\n    }\n}\n",
  "sourcePath": "/home/mohit/Desktop/dexhigh/countbapp/contracts/lib/EIP712.sol",
  "compiler": {
    "name": "solc",
    "version": "0.4.24+commit.e67f0147.Emscripten.clang"
  },
  "schemaVersion": "3.3.1",
  "updatedAt": "2020-11-05T23:23:08.774Z",
  "devdoc": {
    "methods": {}
  },
  "userdoc": {
    "methods": {}
  }
}