{
  "contractName": "HybridExchange",
  "abi": [
    {
      "constant": false,
      "inputs": [
        {
          "name": "delegate",
          "type": "address"
        }
      ],
      "name": "approveDelegate",
      "outputs": [],
      "payable": false,
      "stateMutability": "nonpayable",
      "type": "function"
    },
    {
      "constant": false,
      "inputs": [
        {
          "name": "newConfig",
          "type": "bytes32"
        }
      ],
      "name": "changeDiscountConfig",
      "outputs": [],
      "payable": false,
      "stateMutability": "nonpayable",
      "type": "function"
    },
    {
      "constant": true,
      "inputs": [],
      "name": "proxyAddress",
      "outputs": [
        {
          "name": "",
          "type": "address"
        }
      ],
      "payable": false,
      "stateMutability": "view",
      "type": "function"
    },
    {
      "constant": true,
      "inputs": [
        {
          "name": "",
          "type": "bytes32"
        }
      ],
      "name": "filled",
      "outputs": [
        {
          "name": "",
          "type": "uint256"
        }
      ],
      "payable": false,
      "stateMutability": "view",
      "type": "function"
    },
    {
      "constant": true,
      "inputs": [
        {
          "name": "",
          "type": "bytes32"
        }
      ],
      "name": "cancelled",
      "outputs": [
        {
          "name": "",
          "type": "bool"
        }
      ],
      "payable": false,
      "stateMutability": "view",
      "type": "function"
    },
    {
      "constant": true,
      "inputs": [
        {
          "name": "",
          "type": "address"
        },
        {
          "name": "",
          "type": "address"
        }
      ],
      "name": "relayerDelegates",
      "outputs": [
        {
          "name": "",
          "type": "bool"
        }
      ],
      "payable": false,
      "stateMutability": "view",
      "type": "function"
    },
    {
      "constant": false,
      "inputs": [],
      "name": "exitIncentiveSystem",
      "outputs": [],
      "payable": false,
      "stateMutability": "nonpayable",
      "type": "function"
    },
    {
      "constant": true,
      "inputs": [],
      "name": "DOMAIN_SEPARATOR",
      "outputs": [
        {
          "name": "",
          "type": "bytes32"
        }
      ],
      "payable": false,
      "stateMutability": "view",
      "type": "function"
    },
    {
      "constant": true,
      "inputs": [],
      "name": "discountConfig",
      "outputs": [
        {
          "name": "",
          "type": "bytes32"
        }
      ],
      "payable": false,
      "stateMutability": "view",
      "type": "function"
    },
    {
      "constant": true,
      "inputs": [
        {
          "name": "relayer",
          "type": "address"
        }
      ],
      "name": "canMatchOrdersFrom",
      "outputs": [
        {
          "name": "",
          "type": "bool"
        }
      ],
      "payable": false,
      "stateMutability": "view",
      "type": "function"
    },
    {
      "constant": true,
      "inputs": [
        {
          "name": "user",
          "type": "address"
        }
      ],
      "name": "getDiscountedRate",
      "outputs": [
        {
          "name": "result",
          "type": "uint256"
        }
      ],
      "payable": false,
      "stateMutability": "view",
      "type": "function"
    },
    {
      "constant": true,
      "inputs": [],
      "name": "EIP712_ORDER_TYPE",
      "outputs": [
        {
          "name": "",
          "type": "bytes32"
        }
      ],
      "payable": false,
      "stateMutability": "view",
      "type": "function"
    },
    {
      "constant": true,
      "inputs": [],
      "name": "FEE_RATE_BASE",
      "outputs": [
        {
          "name": "",
          "type": "uint256"
        }
      ],
      "payable": false,
      "stateMutability": "view",
      "type": "function"
    },
    {
      "constant": true,
      "inputs": [],
      "name": "REBATE_RATE_BASE",
      "outputs": [
        {
          "name": "",
          "type": "uint256"
        }
      ],
      "payable": false,
      "stateMutability": "view",
      "type": "function"
    },
    {
      "constant": false,
      "inputs": [],
      "name": "renounceOwnership",
      "outputs": [],
      "payable": false,
      "stateMutability": "nonpayable",
      "type": "function"
    },
    {
      "constant": true,
      "inputs": [],
      "name": "DISCOUNT_RATE_BASE",
      "outputs": [
        {
          "name": "",
          "type": "uint256"
        }
      ],
      "payable": false,
      "stateMutability": "view",
      "type": "function"
    },
    {
      "constant": true,
      "inputs": [],
      "name": "owner",
      "outputs": [
        {
          "name": "",
          "type": "address"
        }
      ],
      "payable": false,
      "stateMutability": "view",
      "type": "function"
    },
    {
      "constant": true,
      "inputs": [],
      "name": "isOwner",
      "outputs": [
        {
          "name": "",
          "type": "bool"
        }
      ],
      "payable": false,
      "stateMutability": "view",
      "type": "function"
    },
    {
      "constant": true,
      "inputs": [
        {
          "name": "relayer",
          "type": "address"
        }
      ],
      "name": "isParticipant",
      "outputs": [
        {
          "name": "",
          "type": "bool"
        }
      ],
      "payable": false,
      "stateMutability": "view",
      "type": "function"
    },
    {
      "constant": false,
      "inputs": [],
      "name": "joinIncentiveSystem",
      "outputs": [],
      "payable": false,
      "stateMutability": "nonpayable",
      "type": "function"
    },
    {
      "constant": true,
      "inputs": [],
      "name": "SUPPORTED_ORDER_VERSION",
      "outputs": [
        {
          "name": "",
          "type": "uint256"
        }
      ],
      "payable": false,
      "stateMutability": "view",
      "type": "function"
    },
    {
      "constant": true,
      "inputs": [],
      "name": "EIP712_DOMAIN_TYPEHASH",
      "outputs": [
        {
          "name": "",
          "type": "bytes32"
        }
      ],
      "payable": false,
      "stateMutability": "view",
      "type": "function"
    },
    {
      "constant": true,
      "inputs": [],
      "name": "hotTokenAddress",
      "outputs": [
        {
          "name": "",
          "type": "address"
        }
      ],
      "payable": false,
      "stateMutability": "view",
      "type": "function"
    },
    {
      "constant": false,
      "inputs": [
        {
          "name": "newOwner",
          "type": "address"
        }
      ],
      "name": "transferOwnership",
      "outputs": [],
      "payable": false,
      "stateMutability": "nonpayable",
      "type": "function"
    },
    {
      "constant": false,
      "inputs": [
        {
          "name": "delegate",
          "type": "address"
        }
      ],
      "name": "revokeDelegate",
      "outputs": [],
      "payable": false,
      "stateMutability": "nonpayable",
      "type": "function"
    },
    {
      "inputs": [
        {
          "name": "_proxyAddress",
          "type": "address"
        },
        {
          "name": "hotTokenAddress",
          "type": "address"
        }
      ],
      "payable": false,
      "stateMutability": "nonpayable",
      "type": "constructor"
    },
    {
      "anonymous": false,
      "inputs": [
        {
          "indexed": true,
          "name": "orderHash",
          "type": "bytes32"
        }
      ],
      "name": "Cancel",
      "type": "event"
    },
    {
      "anonymous": false,
      "inputs": [
        {
          "components": [
            {
              "name": "baseToken",
              "type": "address"
            },
            {
              "name": "quoteToken",
              "type": "address"
            },
            {
              "name": "relayer",
              "type": "address"
            }
          ],
          "indexed": false,
          "name": "addressSet",
          "type": "tuple"
        },
        {
          "components": [
            {
              "name": "maker",
              "type": "address"
            },
            {
              "name": "taker",
              "type": "address"
            },
            {
              "name": "buyer",
              "type": "address"
            },
            {
              "name": "makerFee",
              "type": "uint256"
            },
            {
              "name": "makerRebate",
              "type": "uint256"
            },
            {
              "name": "takerFee",
              "type": "uint256"
            },
            {
              "name": "makerGasFee",
              "type": "uint256"
            },
            {
              "name": "takerGasFee",
              "type": "uint256"
            },
            {
              "name": "baseTokenFilledAmount",
              "type": "uint256"
            },
            {
              "name": "quoteTokenFilledAmount",
              "type": "uint256"
            }
          ],
          "indexed": false,
          "name": "result",
          "type": "tuple"
        }
      ],
      "name": "Match",
      "type": "event"
    },
    {
      "anonymous": false,
      "inputs": [
        {
          "indexed": true,
          "name": "previousOwner",
          "type": "address"
        },
        {
          "indexed": true,
          "name": "newOwner",
          "type": "address"
        }
      ],
      "name": "OwnershipTransferred",
      "type": "event"
    },
    {
      "anonymous": false,
      "inputs": [
        {
          "indexed": true,
          "name": "relayer",
          "type": "address"
        },
        {
          "indexed": true,
          "name": "delegate",
          "type": "address"
        }
      ],
      "name": "RelayerApproveDelegate",
      "type": "event"
    },
    {
      "anonymous": false,
      "inputs": [
        {
          "indexed": true,
          "name": "relayer",
          "type": "address"
        },
        {
          "indexed": true,
          "name": "delegate",
          "type": "address"
        }
      ],
      "name": "RelayerRevokeDelegate",
      "type": "event"
    },
    {
      "anonymous": false,
      "inputs": [
        {
          "indexed": true,
          "name": "relayer",
          "type": "address"
        }
      ],
      "name": "RelayerExit",
      "type": "event"
    },
    {
      "anonymous": false,
      "inputs": [
        {
          "indexed": true,
          "name": "relayer",
          "type": "address"
        }
      ],
      "name": "RelayerJoin",
      "type": "event"
    },
    {
      "constant": false,
      "inputs": [
        {
          "components": [
            {
              "name": "trader",
              "type": "address"
            },
            {
              "name": "baseTokenAmount",
              "type": "uint256"
            },
            {
              "name": "quoteTokenAmount",
              "type": "uint256"
            },
            {
              "name": "gasTokenAmount",
              "type": "uint256"
            },
            {
              "name": "data",
              "type": "bytes32"
            },
            {
              "components": [
                {
                  "name": "config",
                  "type": "bytes32"
                },
                {
                  "name": "r",
                  "type": "bytes32"
                },
                {
                  "name": "s",
                  "type": "bytes32"
                }
              ],
              "name": "signature",
              "type": "tuple"
            }
          ],
          "name": "takerOrderParam",
          "type": "tuple"
        },
        {
          "components": [
            {
              "name": "trader",
              "type": "address"
            },
            {
              "name": "baseTokenAmount",
              "type": "uint256"
            },
            {
              "name": "quoteTokenAmount",
              "type": "uint256"
            },
            {
              "name": "gasTokenAmount",
              "type": "uint256"
            },
            {
              "name": "data",
              "type": "bytes32"
            },
            {
              "components": [
                {
                  "name": "config",
                  "type": "bytes32"
                },
                {
                  "name": "r",
                  "type": "bytes32"
                },
                {
                  "name": "s",
                  "type": "bytes32"
                }
              ],
              "name": "signature",
              "type": "tuple"
            }
          ],
          "name": "makerOrderParams",
          "type": "tuple[]"
        },
        {
          "name": "baseTokenFilledAmounts",
          "type": "uint256[]"
        },
        {
          "components": [
            {
              "name": "baseToken",
              "type": "address"
            },
            {
              "name": "quoteToken",
              "type": "address"
            },
            {
              "name": "relayer",
              "type": "address"
            }
          ],
          "name": "orderAddressSet",
          "type": "tuple"
        }
      ],
      "name": "matchOrders",
      "outputs": [],
      "payable": false,
      "stateMutability": "nonpayable",
      "type": "function"
    },
    {
      "constant": false,
      "inputs": [
        {
          "components": [
            {
              "name": "trader",
              "type": "address"
            },
            {
              "name": "relayer",
              "type": "address"
            },
            {
              "name": "baseToken",
              "type": "address"
            },
            {
              "name": "quoteToken",
              "type": "address"
            },
            {
              "name": "baseTokenAmount",
              "type": "uint256"
            },
            {
              "name": "quoteTokenAmount",
              "type": "uint256"
            },
            {
              "name": "gasTokenAmount",
              "type": "uint256"
            },
            {
              "name": "data",
              "type": "bytes32"
            }
          ],
          "name": "order",
          "type": "tuple"
        }
      ],
      "name": "cancelOrder",
      "outputs": [],
      "payable": false,
      "stateMutability": "nonpayable",
      "type": "function"
    }
  ],
  "bytecode": "0x60806040527f043c000027106400004e205a000075305000009c4046000000000000000000006001026005906000191690553480156200003e57600080fd5b506040516040806200458d8339810180604052620000609190810190620003a2565b8060405160200180807f454950373132446f6d61696e28737472696e67206e616d65290000000000000081525060190190506040516020818303038152906040526040518082805190602001908083835b602083101515620000d85780518252602082019150602081019050602083039250620000b1565b6001836020036101000a03801982511681845116808217855250505050505090500191505060405180910390206040805190810160405280600e81526020017f487964726f2050726f746f636f6c0000000000000000000000000000000000008152506040518082805190602001908083835b6020831015156200017257805182526020820191506020810190506020830392506200014b565b6001836020036101000a03801982511681845116808217855250505050505090500191505060405180910390206040516020018083600019166000191681526020018260001916600019168152602001925050506040516020818303038152906040526040518082805190602001908083835b6020831015156200020c5780518252602082019150602081019050602083039250620001e5565b6001836020036101000a03801982511681845116808217855250505050505090500191505060405180910390206000816000191690555033600360006101000a81548173ffffffffffffffffffffffffffffffffffffffff021916908373ffffffffffffffffffffffffffffffffffffffff160217905550600360009054906101000a900473ffffffffffffffffffffffffffffffffffffffff1673ffffffffffffffffffffffffffffffffffffffff16600073ffffffffffffffffffffffffffffffffffffffff167f8be0079c531659141344cd1fd0a4f28419497f9722a3daafe3b4186f6b6457e060405160405180910390a380600460006101000a81548173ffffffffffffffffffffffffffffffffffffffff021916908373ffffffffffffffffffffffffffffffffffffffff1602179055505081600660006101000a81548173ffffffffffffffffffffffffffffffffffffffff021916908373ffffffffffffffffffffffffffffffffffffffff160217905550505062000403565b60006200039a8251620003e3565b905092915050565b60008060408385031215620003b657600080fd5b6000620003c6858286016200038c565b9250506020620003d9858286016200038c565b9150509250929050565b600073ffffffffffffffffffffffffffffffffffffffff82169050919050565b61417a80620004136000396000f30060806040526004361061015f576000357c0100000000000000000000000000000000000000000000000000000000900463ffffffff16806306df453e14610164578063156066e41461018d57806323f5c02d146101b6578063288cdc91146101e15780632ac126221461021e57806331d484471461025b5780633560c5cd146102985780633644e515146102af57806337e60751146102da5780633e5893be146103055780634376abf1146103425780635373a1911461037f57806361c3efb1146103aa57806363aaf8ec146103d5578063715018a6146104005780637add89fb14610417578063884dad2e146104425780638da5cb5b1461046b5780638f32d59b14610496578063929066f5146104c1578063b6b3618e146104fe578063b875bdf114610527578063c1e31de91461053e578063c7977be714610569578063cdfcc98414610594578063f2fde38b146105bf578063fa352c00146105e8575b600080fd5b34801561017057600080fd5b5061018b60048036036101869190810190613813565b610611565b005b34801561019957600080fd5b506101b460048036036101af9190810190613878565b610702565b005b3480156101c257600080fd5b506101cb610759565b6040516101d89190613d17565b60405180910390f35b3480156101ed57600080fd5b5061020860048036036102039190810190613878565b61077f565b6040516102159190613f39565b60405180910390f35b34801561022a57600080fd5b5061024560048036036102409190810190613878565b610797565b6040516102529190613d32565b60405180910390f35b34801561026757600080fd5b50610282600480360361027d919081019061383c565b6107b7565b60405161028f9190613d32565b60405180910390f35b3480156102a457600080fd5b506102ad6107e6565b005b3480156102bb57600080fd5b506102c4610883565b6040516102d19190613d4d565b60405180910390f35b3480156102e657600080fd5b506102ef610889565b6040516102fc9190613d4d565b60405180910390f35b34801561031157600080fd5b5061032c60048036036103279190810190613813565b61088f565b6040516103399190613d32565b60405180910390f35b34801561034e57600080fd5b5061036960048036036103649190810190613813565b61095f565b6040516103769190613f39565b60405180910390f35b34801561038b57600080fd5b50610394610b18565b6040516103a19190613d4d565b60405180910390f35b3480156103b657600080fd5b506103bf610ba0565b6040516103cc9190613f39565b60405180910390f35b3480156103e157600080fd5b506103ea610ba7565b6040516103f79190613f39565b60405180910390f35b34801561040c57600080fd5b50610415610bac565b005b34801561042357600080fd5b5061042c610cb6565b6040516104399190613f39565b60405180910390f35b34801561044e57600080fd5b50610469600480360361046491908101906138a1565b610cbb565b005b34801561047757600080fd5b506104806110db565b60405161048d9190613d17565b60405180910390f35b3480156104a257600080fd5b506104ab611105565b6040516104b89190613d32565b60405180910390f35b3480156104cd57600080fd5b506104e860048036036104e39190810190613813565b61115d565b6040516104f59190613d32565b60405180910390f35b34801561050a57600080fd5b5061052560048036036105209190810190613938565b6111b4565b005b34801561053357600080fd5b5061053c6112d7565b005b34801561054a57600080fd5b5061055361136b565b6040516105609190613f39565b60405180910390f35b34801561057557600080fd5b5061057e611370565b60405161058b9190613d4d565b60405180910390f35b3480156105a057600080fd5b506105a9611415565b6040516105b69190613d17565b60405180910390f35b3480156105cb57600080fd5b506105e660048036036105e19190810190613813565b61143b565b005b3480156105f457600080fd5b5061060f600480360361060a9190810190613813565b6115b6565b005b60018060003373ffffffffffffffffffffffffffffffffffffffff1673ffffffffffffffffffffffffffffffffffffffff16815260200190815260200160002060008373ffffffffffffffffffffffffffffffffffffffff1673ffffffffffffffffffffffffffffffffffffffff16815260200190815260200160002060006101000a81548160ff0219169083151502179055508073ffffffffffffffffffffffffffffffffffffffff163373ffffffffffffffffffffffffffffffffffffffff167f7fa92f6e23fcdb0b7a7001ea137560a8ebee9b8302d16e3b37c64ae7116b69ad60405160405180910390a350565b61070a611105565b151561074b576040517f08c379a000000000000000000000000000000000000000000000000000000000815260040161074290613e8f565b60405180910390fd5b806005816000191690555050565b600660009054906101000a900473ffffffffffffffffffffffffffffffffffffffff1681565b60076020528060005260406000206000915090505481565b60086020528060005260406000206000915054906101000a900460ff1681565b60016020528160005260406000206020528060005260406000206000915091509054906101000a900460ff1681565b6001600260003373ffffffffffffffffffffffffffffffffffffffff1673ffffffffffffffffffffffffffffffffffffffff16815260200190815260200160002060006101000a81548160ff0219169083151502179055503373ffffffffffffffffffffffffffffffffffffffff167f9bdfcd96a99ab6dad403b4ef4562bb3471fdeaab5e699160abf7c3f2cbe6680560405160405180910390a2565b60005481565b60055481565b60008173ffffffffffffffffffffffffffffffffffffffff163373ffffffffffffffffffffffffffffffffffffffff161480610958575060011515600160008473ffffffffffffffffffffffffffffffffffffffff1673ffffffffffffffffffffffffffffffffffffffff16815260200190815260200160002060003373ffffffffffffffffffffffffffffffffffffffff1673ffffffffffffffffffffffffffffffffffffffff16815260200190815260200160002060009054906101000a900460ff161515145b9050919050565b600080600080600080610971876116a8565b945060008514156109855760649550610b0e565b6005549350837f0100000000000000000000000000000000000000000000000000000000000000900492506109cb670de0b6b3a76400008661172190919063ffffffff16565b9450600090505b82811015610a66576008600582026002010284600019169060020a027c01000000000000000000000000000000000000000000000000000000009004915081851015610a59576008600460058302600201010284600019169060020a027f010000000000000000000000000000000000000000000000000000000000000090049550610a66565b80806001019150506109d2565b6000861415610ac757836001602081101515610a7e57fe5b1a7f0100000000000000000000000000000000000000000000000000000000000000027f0100000000000000000000000000000000000000000000000000000000000000900495505b60648611151515610b0d576040517f08c379a0000000000000000000000000000000000000000000000000000000008152600401610b0490613dcf565b60405180910390fd5b5b5050505050919050565b60405160200180806140a2609f9139609f0190506040516020818303038152906040526040518082805190602001908083835b602083101515610b705780518252602082019150602081019050602083039250610b4b565b6001836020036101000a038019825116818451168082178552505050505050905001915050604051809103902081565b620186a081565b606481565b610bb4611105565b1515610bf5576040517f08c379a0000000000000000000000000000000000000000000000000000000008152600401610bec90613e8f565b60405180910390fd5b600073ffffffffffffffffffffffffffffffffffffffff16600360009054906101000a900473ffffffffffffffffffffffffffffffffffffffff1673ffffffffffffffffffffffffffffffffffffffff167f8be0079c531659141344cd1fd0a4f28419497f9722a3daafe3b4186f6b6457e060405160405180910390a36000600360006101000a81548173ffffffffffffffffffffffffffffffffffffffff021916908373ffffffffffffffffffffffffffffffffffffffff160217905550565b606481565b600080610cc6613221565b60606000610cd2613221565b610cdf876040015161088f565b6040805190810160405280600e81526020017f494e56414c49445f53454e444552000000000000000000000000000000000000815250901515610d58576040517f08c379a0000000000000000000000000000000000000000000000000000000008152600401610d4f9190613dad565b60405180910390fd5b50610d668a60800151611781565b156040805190810160405280602081526020017f4d414b45525f4f4e4c595f4f524445525f43414e4e4f545f42455f54414b4552815250901515610de0576040517f08c379a0000000000000000000000000000000000000000000000000000000008152600401610dd79190613dad565b60405180910390fd5b50610dee876040015161115d565b9550610dfa8a87611803565b9450610e068a8861182d565b93508851604051908082528060200260200182016040528015610e4357816020015b610e3061323e565b815260200190600190039081610e285790505b509250600091505b885182101561109c57610e788983815181101515610e6557fe5b9060200190602002015160800151611b35565b15606060405190810160405280602381526020017f4d414b45525f4f524445525f43414e5f4e4f545f42455f4d41524b45545f4f5281526020017f4445520000000000000000000000000000000000000000000000000000000000815250901515610f19576040517f08c379a0000000000000000000000000000000000000000000000000000000008152600401610f109190613dad565b60405180910390fd5b50610f3e8983815181101515610f2b57fe5b9060200190602002015160800151611bb7565b1515610f4d8b60800151611bb7565b151514156040805190810160405280600c81526020017f494e56414c49445f534944450000000000000000000000000000000000000000815250901515610fca576040517f08c379a0000000000000000000000000000000000000000000000000000000008152600401610fc19190613dad565b60405180910390fd5b50610fec8a8a84815181101515610fdd57fe5b90602001906020020151611c39565b61100d8983815181101515610ffd57fe5b906020019060200201518861182d565b905061104c8a858b8581518110151561102257fe5b90602001906020020151848c8781518110151561103b57fe5b906020019060200201518a8c611d15565b838381518110151561105a57fe5b90602001906020020181905250806020015160076000836000015160001916600019168152602001908152602001600020819055508180600101925050610e4b565b836020015160076000866000015160001916600019168152602001908152602001600020819055506110cf838b896121fd565b50505050505050505050565b6000600360009054906101000a900473ffffffffffffffffffffffffffffffffffffffff16905090565b6000600360009054906101000a900473ffffffffffffffffffffffffffffffffffffffff1673ffffffffffffffffffffffffffffffffffffffff163373ffffffffffffffffffffffffffffffffffffffff1614905090565b6000600260008373ffffffffffffffffffffffffffffffffffffffff1673ffffffffffffffffffffffffffffffffffffffff16815260200190815260200160002060009054906101000a900460ff16159050919050565b60003373ffffffffffffffffffffffffffffffffffffffff16826000015173ffffffffffffffffffffffffffffffffffffffff16146040805190810160405280600e81526020017f494e56414c49445f545241444552000000000000000000000000000000000000815250901515611262576040517f08c379a00000000000000000000000000000000000000000000000000000000081526004016112599190613dad565b60405180910390fd5b5061126c8261222e565b9050600160086000836000191660001916815260200190815260200160002060006101000a81548160ff02191690831515021790555080600019167fe8d9861dbc9c663ed3accd261bbe2fe01e0d3d9e5f51fa38523b265c7757a93a60405160405180910390a25050565b600260003373ffffffffffffffffffffffffffffffffffffffff1673ffffffffffffffffffffffffffffffffffffffff16815260200190815260200160002060006101000a81549060ff02191690553373ffffffffffffffffffffffffffffffffffffffff167fc3dd8edec722273de2ffd31b47b4f106689ae891ac1bfddf7ae6190589ab0f6760405160405180910390a2565b600281565b60405160200180807f454950373132446f6d61696e28737472696e67206e616d65290000000000000081525060190190506040516020818303038152906040526040518082805190602001908083835b6020831015156113e557805182526020820191506020810190506020830392506113c0565b6001836020036101000a038019825116818451168082178552505050505050905001915050604051809103902081565b600460009054906101000a900473ffffffffffffffffffffffffffffffffffffffff1681565b611443611105565b1515611484576040517f08c379a000000000000000000000000000000000000000000000000000000000815260040161147b90613e8f565b60405180910390fd5b600073ffffffffffffffffffffffffffffffffffffffff168173ffffffffffffffffffffffffffffffffffffffff16141515156114f6576040517f08c379a00000000000000000000000000000000000000000000000000000000081526004016114ed90613e6f565b60405180910390fd5b8073ffffffffffffffffffffffffffffffffffffffff16600360009054906101000a900473ffffffffffffffffffffffffffffffffffffffff1673ffffffffffffffffffffffffffffffffffffffff167f8be0079c531659141344cd1fd0a4f28419497f9722a3daafe3b4186f6b6457e060405160405180910390a380600360006101000a81548173ffffffffffffffffffffffffffffffffffffffff021916908373ffffffffffffffffffffffffffffffffffffffff16021790555050565b6000600160003373ffffffffffffffffffffffffffffffffffffffff1673ffffffffffffffffffffffffffffffffffffffff16815260200190815260200160002060008373ffffffffffffffffffffffffffffffffffffffff1673ffffffffffffffffffffffffffffffffffffffff16815260200190815260200160002060006101000a81548160ff0219169083151502179055508073ffffffffffffffffffffffffffffffffffffffff163373ffffffffffffffffffffffffffffffffffffffff167fa6568d7ca1ae4c87043ca12f90308b8ef94330ee3a047c2101e1a40812d26c9860405160405180910390a350565b600080600460009054906101000a900473ffffffffffffffffffffffffffffffffffffffff1690506000516004517f70a082310000000000000000000000000000000000000000000000000000000060005284600452602060006024600080875af1935060005193508160005280600452505050919050565b600080600083111515611769576040517f08c379a000000000000000000000000000000000000000000000000000000000815260040161176090613e0f565b60405180910390fd5b828481151561177457fe5b0490508091505092915050565b600060017f0100000000000000000000000000000000000000000000000000000000000000028260166020811015156117b657fe5b1a7f0100000000000000000000000000000000000000000000000000000000000000027effffffffffffffffffffffffffffffffffffffffffffffffffffffffffffff1916149050919050565b600080611813846080015161224b565b905061182484600001518285612282565b91505092915050565b611835613221565b61183d6132d4565b6000600261184e86608001516122ca565b146040805190810160405280601b81526020017f4f524445525f56455253494f4e5f4e4f545f535550504f5254454400000000008152509015156118c8576040517f08c379a00000000000000000000000000000000000000000000000000000000081526004016118bf9190613dad565b60405180910390fd5b506118d385856122f7565b91506118de8261222e565b8360000190600019169081600019168152505060076000846000015160001916600019168152602001908152602001600020548360200181815250506002600381111561192757fe5b90506119368260e00151612437565b15801561194b57508160800151836020015110155b156119635760038081111561195c57fe5b9050611a0a565b6119708260e00151612437565b801561198457508160a00151836020015110155b1561199c5760038081111561199557fe5b9050611a09565b6119a98260e0015161245b565b421015156119c557600060038111156119be57fe5b9050611a08565b6008600084600001516000191660001916815260200190815260200160002060009054906101000a900460ff1615611a075760016003811115611a0457fe5b90505b5b5b5b60026003811115611a1757fe5b60ff168160ff16146040805190810160405280601581526020017f4f524445525f49535f4e4f545f46494c4c41424c450000000000000000000000815250901515611a98576040517f08c379a0000000000000000000000000000000000000000000000000000000008152600401611a8f9190613dad565b60405180910390fd5b50611ab0836000015186600001518760a0015161248f565b6040805190810160405280601781526020017f494e56414c49445f4f524445525f5349474e4154555245000000000000000000815250901515611b29576040517f08c379a0000000000000000000000000000000000000000000000000000000008152600401611b209190613dad565b60405180910390fd5b50829250505092915050565b600060017f010000000000000000000000000000000000000000000000000000000000000002826002602081101515611b6a57fe5b1a7f0100000000000000000000000000000000000000000000000000000000000000027effffffffffffffffffffffffffffffffffffffffffffffffffffffffffffff1916149050919050565b600060017f010000000000000000000000000000000000000000000000000000000000000002826001602081101515611bec57fe5b1a7f0100000000000000000000000000000000000000000000000000000000000000027effffffffffffffffffffffffffffffffffffffffffffffffffffffffffffff1916149050919050565b600080611c578360200151856040015161276690919063ffffffff16565b9150611c748360400151856020015161276690919063ffffffff16565b9050611c838460800151611bb7565b611c905780821015611c95565b808211155b6040805190810160405280600d81526020017f494e56414c49445f4d4154434800000000000000000000000000000000000000815250901515611d0e576040517f08c379a0000000000000000000000000000000000000000000000000000000008152600401611d059190613dad565b60405180910390fd5b5050505050565b611d1d613375565b60008060008684610100018181525050611d3789886127da565b8461012001818152505060008a602001511415611d5d578a606001518460e00181815250505b600088602001511415611d795788606001518460c00181815250505b611d868b60800151612437565b1515611e3c57611da88461010001518b602001516127f790919063ffffffff16565b8a60200181815250508a602001518a6020015111156040805190810160405280601681526020017f54414b45525f4f524445525f4f5645525f4d4154434800000000000000000000815250901515611e36576040517f08c379a0000000000000000000000000000000000000000000000000000000008152600401611e2d9190613dad565b60405180910390fd5b50611ee8565b611e588461012001518b602001516127f790919063ffffffff16565b8a60200181815250508a604001518a6020015111156040805190810160405280601681526020017f54414b45525f4f524445525f4f5645525f4d4154434800000000000000000000815250901515611ee6576040517f08c379a0000000000000000000000000000000000000000000000000000000008152600401611edd9190613dad565b60405180910390fd5b505b611f0484610100015189602001516127f790919063ffffffff16565b8860200181815250508860200151886020015111156040805190810160405280601681526020017f4d414b45525f4f524445525f4f5645525f4d4154434800000000000000000000815250901515611f92576040517f08c379a0000000000000000000000000000000000000000000000000000000008152600401611f899190613dad565b60405180910390fd5b508860000151846000019073ffffffffffffffffffffffffffffffffffffffff16908173ffffffffffffffffffffffffffffffffffffffff16815250508a60000151846020019073ffffffffffffffffffffffffffffffffffffffff16908173ffffffffffffffffffffffffffffffffffffffff16815250506120188b60800151611bb7565b1561205e578360000151846040019073ffffffffffffffffffffffffffffffffffffffff16908173ffffffffffffffffffffffffffffffffffffffff168152505061209b565b8360200151846040019073ffffffffffffffffffffffffffffffffffffffff16908173ffffffffffffffffffffffffffffffffffffffff16815250505b6120a8896080015161284e565b925060008311156121315760008460600181815250506121236120eb60646120dd6064620186a061276690919063ffffffff16565b61276690919063ffffffff16565b612115856121078a89610120015161276690919063ffffffff16565b61276690919063ffffffff16565b61172190919063ffffffff16565b8460800181815250506121a6565b61213e8960800151612894565b9150600084608001818152505061215a89600001518387612282565b905061219c6121766064620186a061276690919063ffffffff16565b61218e8387610120015161276690919063ffffffff16565b61172190919063ffffffff16565b8460600181815250505b6121e66121c06064620186a061276690919063ffffffff16565b6121d88887610120015161276690919063ffffffff16565b61172190919063ffffffff16565b8460a0018181525050505050979650505050505050565b61220a8260800151611bb7565b1561221e5761221983826128cb565b612229565b6122288382612b04565b5b505050565b600061224161223c83612dac565b612e54565b9050809050919050565b6000605082600019169060020a027e0100000000000000000000000000000000000000000000000000000000000090049050919050565b600081156122ac576122a56122968561095f565b8461276690919063ffffffff16565b90506122c3565b6122c060648461276690919063ffffffff16565b90505b9392505050565b6000817f010000000000000000000000000000000000000000000000000000000000000090049050919050565b6122ff6132d4565b8260000151816000019073ffffffffffffffffffffffffffffffffffffffff16908173ffffffffffffffffffffffffffffffffffffffff1681525050826020015181608001818152505082604001518160a001818152505082606001518160c001818152505082608001518160e0019060001916908160001916815250508160000151816040019073ffffffffffffffffffffffffffffffffffffffff16908173ffffffffffffffffffffffffffffffffffffffff16815250508160200151816060019073ffffffffffffffffffffffffffffffffffffffff16908173ffffffffffffffffffffffffffffffffffffffff16815250508160400151816020019073ffffffffffffffffffffffffffffffffffffffff16908173ffffffffffffffffffffffffffffffffffffffff168152505092915050565b600061244282611bb7565b158015612454575061245382611b35565b5b9050919050565b6000601882600019169060020a027b0100000000000000000000000000000000000000000000000000000090049050919050565b600080600080846000015160016020811015156124a857fe5b1a7f0100000000000000000000000000000000000000000000000000000000000000027f0100000000000000000000000000000000000000000000000000000000000000900492508460000151600060208110151561250357fe5b1a7f0100000000000000000000000000000000000000000000000000000000000000027f0100000000000000000000000000000000000000000000000000000000000000900490506000600181111561255857fe5b60ff168360ff1614156126765760018760405160200180807f19457468657265756d205369676e6564204d6573736167653a0a333200000000815250601c0182600019166000191681526020019150506040516020818303038152906040526040518082805190602001908083835b6020831015156125ec57805182526020820191506020810190506020830392506125c7565b6001836020036101000a03801982511681845116808217855250505050505090500191505060405180910390208287602001518860400151604051600081526020016040526040516126419493929190613d68565b60206040516020810390808403906000865af1158015612665573d6000803e3d6000fd5b50505060206040510351915061272b565b60018081111561268257fe5b60ff168360ff1614156126ef576001878287602001518860400151604051600081526020016040526040516126ba9493929190613d68565b60206040516020810390808403906000865af11580156126de573d6000803e3d6000fd5b50505060206040510351915061272a565b6040517f08c379a000000000000000000000000000000000000000000000000000000000815260040161272190613def565b60405180910390fd5b5b8173ffffffffffffffffffffffffffffffffffffffff168673ffffffffffffffffffffffffffffffffffffffff161493505050509392505050565b600080600084141561277b57600091506127d3565b828402905082848281151561278c57fe5b041415156127cf576040517f08c379a00000000000000000000000000000000000000000000000000000000081526004016127c690613ecf565b60405180910390fd5b8091505b5092915050565b60006127ef8360400151846020015184612f20565b905092915050565b6000808284019050838110151515612844576040517f08c379a000000000000000000000000000000000000000000000000000000000815260040161283b90613eaf565b60405180910390fd5b8091505092915050565b600080606083600019169060020a027e010000000000000000000000000000000000000000000000000000000000009004905061288c816064612f9d565b915050919050565b6000604082600019169060020a027e0100000000000000000000000000000000000000000000000000000000000090049050919050565b60008060009150600090505b8351811015612aa057612942836000015185838151811015156128f657fe5b9060200190602002015160200151868481518110151561291257fe5b9060200190602002015160000151878581518110151561292e57fe5b906020019060200201516101000151612fb6565b612a148360200151858381518110151561295857fe5b90602001906020020151600001518560400151612a0f888681518110151561297c57fe5b9060200190602002015160800151612a018a8881518110151561299b57fe5b9060200190602002015160c001516129f38c8a8151811015156129ba57fe5b90602001906020020151606001518d8b8151811015156129d657fe5b9060200190602002015161012001516127f790919063ffffffff16565b6127f790919063ffffffff16565b6130d990919063ffffffff16565b612fb6565b612a70612a618583815181101515612a2857fe5b9060200190602002015160a001518684815181101515612a4457fe5b9060200190602002015161012001516130d990919063ffffffff16565b836127f790919063ffffffff16565b9150612a938482815181101515612a8357fe5b9060200190602002015184613130565b80806001019150506128d7565b612afe83602001518460400151866000815181101515612abc57fe5b9060200190602002015160200151612af9886000815181101515612adc57fe5b9060200190602002015160e00151876130d990919063ffffffff16565b612fb6565b50505050565b60008060009150600090505b8351811015612d7657612b7b83600001518583815181101515612b2f57fe5b90602001906020020151600001518684815181101515612b4b57fe5b90602001906020020151602001518785815181101515612b6757fe5b906020019060200201516101000151612fb6565b612c6483602001518583815181101515612b9157fe5b90602001906020020151602001518684815181101515612bad57fe5b9060200190602002015160000151612c5f8886815181101515612bcc57fe5b9060200190602002015160800151612c518a88815181101515612beb57fe5b9060200190602002015160c00151612c438c8a815181101515612c0a57fe5b90602001906020020151606001518d8b815181101515612c2657fe5b9060200190602002015161012001516130d990919063ffffffff16565b6130d990919063ffffffff16565b6127f790919063ffffffff16565b612fb6565b612d468482815181101515612c7557fe5b9060200190602002015160800151612d388684815181101515612c9457fe5b9060200190602002015160e00151612d2a8886815181101515612cb357fe5b9060200190602002015160c00151612d1c8a88815181101515612cd257fe5b9060200190602002015160600151612d0e8c8a815181101515612cf157fe5b9060200190602002015160a001518b6127f790919063ffffffff16565b6127f790919063ffffffff16565b6127f790919063ffffffff16565b6127f790919063ffffffff16565b6130d990919063ffffffff16565b9150612d698482815181101515612d5957fe5b9060200190602002015184613130565b8080600101915050612b10565b612da68360200151856000815181101515612d8d57fe5b9060200190602002015160200151856040015185612fb6565b50505050565b60008060405160200180806140a2609f9139609f0190506040516020818303038152906040526040518082805190602001908083835b602083101515612e075780518252602082019150602081019050602083039250612de2565b6001836020036101000a0380198251168184511680821785525050505050509050019150506040518091039020905060208303805182825261012082209350808252505081915050919050565b600080548260405160200180807f190100000000000000000000000000000000000000000000000000000000000081525060020183600019166000191681526020018260001916600019168152602001925050506040516020818303038152906040526040518082805190602001908083835b602083101515612eec5780518252602082019150602081019050602083039250612ec7565b6001836020036101000a03801982511681845116808217855250505050505090500191505060405180910390209050919050565b6000612f2d84848461316d565b151515612f6f576040517f08c379a0000000000000000000000000000000000000000000000000000000008152600401612f6690613e2f565b60405180910390fd5b612f9483612f86848761276690919063ffffffff16565b61172190919063ffffffff16565b90509392505050565b6000818310612fac5781612fae565b825b905092915050565b6000806000831415612fc7576130d1565b600660009054906101000a900473ffffffffffffffffffffffffffffffffffffffff1691506000516004516024516044516064517f15dacbea000000000000000000000000000000000000000000000000000000006000528a60045289602452886044528760645260008060846000808b5af195508460005283600452826024528160445280606452505050505060008114156130d0576040805190810160405280601481526020017f5452414e534645525f46524f4d5f4641494c45440000000000000000000000008152506040517f08c379a00000000000000000000000000000000000000000000000000000000081526004016130c79190613dad565b60405180910390fd5b5b505050505050565b600080838311151515613121576040517f08c379a000000000000000000000000000000000000000000000000000000000815260040161311890613e4f565b60405180910390fd5b82840390508091505092915050565b7fd3ac06c3b34b93617ba2070b8b7a925029035b3f30fecd2d0fa8e5845724f3108183604051613161929190613f0f565b60405180910390a15050565b6000613182828561276690919063ffffffff16565b6131bb6103e86131ad8661319f878a61276690919063ffffffff16565b6131c690919063ffffffff16565b61276690919063ffffffff16565b101590509392505050565b600080821415151561320d576040517f08c379a000000000000000000000000000000000000000000000000000000000815260040161320490613eef565b60405180910390fd5b818381151561321857fe5b06905092915050565b604080519081016040528060008019168152602001600081525090565b61014060405190810160405280600073ffffffffffffffffffffffffffffffffffffffff168152602001600073ffffffffffffffffffffffffffffffffffffffff168152602001600073ffffffffffffffffffffffffffffffffffffffff168152602001600081526020016000815260200160008152602001600081526020016000815260200160008152602001600081525090565b61010060405190810160405280600073ffffffffffffffffffffffffffffffffffffffff168152602001600073ffffffffffffffffffffffffffffffffffffffff168152602001600073ffffffffffffffffffffffffffffffffffffffff168152602001600073ffffffffffffffffffffffffffffffffffffffff168152602001600081526020016000815260200160008152602001600080191681525090565b61014060405190810160405280600073ffffffffffffffffffffffffffffffffffffffff168152602001600073ffffffffffffffffffffffffffffffffffffffff168152602001600073ffffffffffffffffffffffffffffffffffffffff168152602001600081526020016000815260200160008152602001600081526020016000815260200160008152602001600081525090565b60006134178235614029565b905092915050565b600082601f830112151561343257600080fd5b813561344561344082613f81565b613f54565b915081818352602084019350602081019050838561010084028201111561346b57600080fd5b60005b8381101561349c5781613481888261359f565b8452602084019350610100830192505060018101905061346e565b5050505092915050565b600082601f83011215156134b957600080fd5b81356134cc6134c782613fa9565b613f54565b915081818352602084019350602081019050838560208402820111156134f157600080fd5b60005b83811015613521578161350788826137ff565b8452602084019350602083019250506001810190506134f4565b5050505092915050565b60006135378235614049565b905092915050565b60006060828403121561355157600080fd5b61355b6060613f54565b9050600061356b8482850161340b565b600083015250602061357f8482850161340b565b60208301525060406135938482850161340b565b60408301525092915050565b600061010082840312156135b257600080fd5b6135bc60c0613f54565b905060006135cc8482850161340b565b60008301525060206135e0848285016137ff565b60208301525060406135f4848285016137ff565b6040830152506060613608848285016137ff565b606083015250608061361c8482850161352b565b60808301525060a0613630848285016136d9565b60a08301525092915050565b6000610100828403121561364f57600080fd5b61365960c0613f54565b905060006136698482850161340b565b600083015250602061367d848285016137ff565b6020830152506040613691848285016137ff565b60408301525060606136a5848285016137ff565b60608301525060806136b98482850161352b565b60808301525060a06136cd848285016136d9565b60a08301525092915050565b6000606082840312156136eb57600080fd5b6136f56060613f54565b905060006137058482850161352b565b60008301525060206137198482850161352b565b602083015250604061372d8482850161352b565b60408301525092915050565b6000610100828403121561374c57600080fd5b613757610100613f54565b905060006137678482850161340b565b600083015250602061377b8482850161340b565b602083015250604061378f8482850161340b565b60408301525060606137a38482850161340b565b60608301525060806137b7848285016137ff565b60808301525060a06137cb848285016137ff565b60a08301525060c06137df848285016137ff565b60c08301525060e06137f38482850161352b565b60e08301525092915050565b600061380b8235614053565b905092915050565b60006020828403121561382557600080fd5b60006138338482850161340b565b91505092915050565b6000806040838503121561384f57600080fd5b600061385d8582860161340b565b925050602061386e8582860161340b565b9150509250929050565b60006020828403121561388a57600080fd5b60006138988482850161352b565b91505092915050565b6000806000806101a085870312156138b857600080fd5b60006138c68782880161363c565b94505061010085013567ffffffffffffffff8111156138e457600080fd5b6138f08782880161341f565b93505061012085013567ffffffffffffffff81111561390e57600080fd5b61391a878288016134a6565b92505061014061392c8782880161353f565b91505092959194509250565b6000610100828403121561394b57600080fd5b600061395984828501613739565b91505092915050565b61396b81613fdc565b82525050565b61397a81613ffc565b82525050565b61398981614008565b82525050565b600061399a82613fd1565b8084526139ae81602086016020860161405d565b6139b781614090565b602085010191505092915050565b6000600e82527f444953434f554e545f4552524f520000000000000000000000000000000000006020830152604082019050919050565b6000601382527f494e56414c49445f5349474e5f4d4554484f44000000000000000000000000006020830152604082019050919050565b6000600e82527f4449564944494e475f4552524f520000000000000000000000000000000000006020830152604082019050919050565b6000600e82527f524f554e44494e475f4552524f520000000000000000000000000000000000006020830152604082019050919050565b6000600982527f5355425f4552524f5200000000000000000000000000000000000000000000006020830152604082019050919050565b6000600d82527f494e56414c49445f4f574e4552000000000000000000000000000000000000006020830152604082019050919050565b6000600982527f4e4f545f4f574e455200000000000000000000000000000000000000000000006020830152604082019050919050565b6000600982527f4144445f4552524f5200000000000000000000000000000000000000000000006020830152604082019050919050565b6000600982527f4d554c5f4552524f5200000000000000000000000000000000000000000000006020830152604082019050919050565b6000600982527f4d4f445f4552524f5200000000000000000000000000000000000000000000006020830152604082019050919050565b61014082016000820151613c026000850182613962565b506020820151613c156020850182613962565b506040820151613c286040850182613962565b506060820151613c3b6060850182613cf9565b506080820151613c4e6080850182613cf9565b5060a0820151613c6160a0850182613cf9565b5060c0820151613c7460c0850182613cf9565b5060e0820151613c8760e0850182613cf9565b50610100820151613c9c610100850182613cf9565b50610120820151613cb1610120850182613cf9565b50505050565b606082016000820151613ccd6000850182613962565b506020820151613ce06020850182613962565b506040820151613cf36040850182613962565b50505050565b613d0281614012565b82525050565b613d118161401c565b82525050565b6000602082019050613d2c6000830184613962565b92915050565b6000602082019050613d476000830184613971565b92915050565b6000602082019050613d626000830184613980565b92915050565b6000608082019050613d7d6000830187613980565b613d8a6020830186613d08565b613d976040830185613980565b613da46060830184613980565b95945050505050565b60006020820190508181036000830152613dc7818461398f565b905092915050565b60006020820190508181036000830152613de8816139c5565b9050919050565b60006020820190508181036000830152613e08816139fc565b9050919050565b60006020820190508181036000830152613e2881613a33565b9050919050565b60006020820190508181036000830152613e4881613a6a565b9050919050565b60006020820190508181036000830152613e6881613aa1565b9050919050565b60006020820190508181036000830152613e8881613ad8565b9050919050565b60006020820190508181036000830152613ea881613b0f565b9050919050565b60006020820190508181036000830152613ec881613b46565b9050919050565b60006020820190508181036000830152613ee881613b7d565b9050919050565b60006020820190508181036000830152613f0881613bb4565b9050919050565b60006101a082019050613f256000830185613cb7565b613f326060830184613beb565b9392505050565b6000602082019050613f4e6000830184613cf9565b92915050565b6000604051905081810181811067ffffffffffffffff82111715613f7757600080fd5b8060405250919050565b600067ffffffffffffffff821115613f9857600080fd5b602082029050602081019050919050565b600067ffffffffffffffff821115613fc057600080fd5b602082029050602081019050919050565b600081519050919050565b600073ffffffffffffffffffffffffffffffffffffffff82169050919050565b60008115159050919050565b6000819050919050565b6000819050919050565b600060ff82169050919050565b600073ffffffffffffffffffffffffffffffffffffffff82169050919050565b6000819050919050565b6000819050919050565b60005b8381101561407b578082015181840152602081019050614060565b8381111561408a576000848401525b50505050565b6000601f19601f830116905091905056004f726465722861646472657373207472616465722c616464726573732072656c617965722c616464726573732062617365546f6b656e2c616464726573732071756f7465546f6b656e2c75696e743235362062617365546f6b656e416d6f756e742c75696e743235362071756f7465546f6b656e416d6f756e742c75696e7432353620676173546f6b656e416d6f756e742c62797465733332206461746129a265627a7a723058202f828d5b581e557379d69e4b8e3c4a73dce311c4e33ca47a22ee06f4ff4d28876c6578706572696d656e74616cf50037",
  "source": "/*\n\n    Copyright 2018 The Hydro Protocol Foundation\n\n    Licensed under the Apache License, Version 2.0 (the \"License\");\n    you may not use this file except in compliance with the License.\n    You may obtain a copy of the License at\n\n        http://www.apache.org/licenses/LICENSE-2.0\n\n    Unless required by applicable law or agreed to in writing, software\n    distributed under the License is distributed on an \"AS IS\" BASIS,\n    WITHOUT WARRANTIES OR CONDITIONS OF ANY KIND, either express or implied.\n    See the License for the specific language governing permissions and\n    limitations under the License.\n\n*/\n\npragma solidity ^0.4.24;\npragma experimental ABIEncoderV2;\n\nimport \"./lib/SafeMath.sol\";\nimport \"./lib/LibOrder.sol\";\nimport \"./lib/LibMath.sol\";\nimport \"./lib/LibSignature.sol\";\nimport \"./lib/LibRelayer.sol\";\nimport \"./lib/LibDiscount.sol\";\nimport \"./lib/LibExchangeErrors.sol\";\n\ncontract HybridExchange is LibMath, LibOrder, LibRelayer, LibDiscount, LibExchangeErrors {\n    using SafeMath for uint256;\n\n    uint256 public constant FEE_RATE_BASE = 100000;\n\n    /* Order v2 data is uncompatible with v1. This contract can only handle v2 order. */\n    uint256 public constant SUPPORTED_ORDER_VERSION = 2;\n\n    /**\n     * Address of the proxy responsible for asset transfer.\n     */\n    address public proxyAddress;\n\n    /**\n     * Mapping of orderHash => amount\n     * Generally the amount will be specified in base token units, however in the case of a market\n     * buy order the amount is specified in quote token units.\n     */\n    mapping (bytes32 => uint256) public filled;\n    /**\n     * Mapping of orderHash => whether order has been cancelled.\n     */\n    mapping (bytes32 => bool) public cancelled;\n\n    event Cancel(bytes32 indexed orderHash);\n\n    /**\n     * When orders are being matched, they will always contain the exact same base token,\n     * quote token, and relayer. Since excessive call data is very expensive, we choose\n     * to create a stripped down OrderParam struct containing only data that may vary between\n     * Order objects, and separate out the common elements into a set of addresses that will\n     * be shared among all of the OrderParam items. This is meant to eliminate redundancy in\n     * the call data, reducing it's size, and hence saving gas.\n     */\n    struct OrderParam {\n        address trader;\n        uint256 baseTokenAmount;\n        uint256 quoteTokenAmount;\n        uint256 gasTokenAmount;\n        bytes32 data;\n        OrderSignature signature;\n    }\n\n    /**\n     * Calculated data about an order object.\n     * Generally the filledAmount is specified in base token units, however in the case of a market\n     * buy order the filledAmount is specified in quote token units.\n     */\n    struct OrderInfo {\n        bytes32 orderHash;\n        uint256 filledAmount;\n    }\n\n    struct OrderAddressSet {\n        address baseToken;\n        address quoteToken;\n        address relayer;\n    }\n\n    struct MatchResult {\n        address maker;\n        address taker;\n        address buyer;\n        uint256 makerFee;\n        uint256 makerRebate;\n        uint256 takerFee;\n        uint256 makerGasFee;\n        uint256 takerGasFee;\n        uint256 baseTokenFilledAmount;\n        uint256 quoteTokenFilledAmount;\n    }\n\n\n    event Match(\n        OrderAddressSet addressSet,\n        MatchResult result\n    );\n\n    constructor(address _proxyAddress, address hotTokenAddress)\n        LibDiscount(hotTokenAddress)\n        public\n    {\n        proxyAddress = _proxyAddress;\n    }\n\n    /**\n     * Match taker order to a list of maker orders. Common addresses are passed in\n     * separately as an OrderAddressSet to reduce call size data and save gas.\n     *\n     * @param takerOrderParam A OrderParam object representing the order from the taker.\n     * @param makerOrderParams An array of OrderParam objects representing orders from a list of makers.\n     * @param orderAddressSet An object containing addresses common across each order.\n     */\n    function matchOrders(\n        OrderParam memory takerOrderParam,\n        OrderParam[] memory makerOrderParams,\n        uint256[] memory baseTokenFilledAmounts,\n        OrderAddressSet memory orderAddressSet\n    ) public {\n        require(canMatchOrdersFrom(orderAddressSet.relayer), INVALID_SENDER);\n        require(!isMakerOnly(takerOrderParam.data), MAKER_ONLY_ORDER_CANNOT_BE_TAKER);\n\n        bool isParticipantRelayer = isParticipant(orderAddressSet.relayer);\n        uint256 takerFeeRate = getTakerFeeRate(takerOrderParam, isParticipantRelayer);\n        OrderInfo memory takerOrderInfo = getOrderInfo(takerOrderParam, orderAddressSet);\n\n        // Calculate which orders match for settlement.\n        MatchResult[] memory results = new MatchResult[](makerOrderParams.length);\n\n        for (uint256 i = 0; i < makerOrderParams.length; i++) {\n            require(!isMarketOrder(makerOrderParams[i].data), MAKER_ORDER_CAN_NOT_BE_MARKET_ORDER);\n            require(isSell(takerOrderParam.data) != isSell(makerOrderParams[i].data), INVALID_SIDE);\n            validatePrice(takerOrderParam, makerOrderParams[i]);\n\n            OrderInfo memory makerOrderInfo = getOrderInfo(makerOrderParams[i], orderAddressSet);\n\n            results[i] = getMatchResult(\n                takerOrderParam,\n                takerOrderInfo,\n                makerOrderParams[i],\n                makerOrderInfo,\n                baseTokenFilledAmounts[i],\n                takerFeeRate,\n                isParticipantRelayer\n            );\n\n            // Update amount filled for this maker order.\n            filled[makerOrderInfo.orderHash] = makerOrderInfo.filledAmount;\n        }\n\n        // Update amount filled for this taker order.\n        filled[takerOrderInfo.orderHash] = takerOrderInfo.filledAmount;\n\n        settleResults(results, takerOrderParam, orderAddressSet);\n    }\n\n    /**\n     * Cancels an order, preventing it from being matched. In practice, matching mode relayers will\n     * generally handle cancellation off chain by removing the order from their system, however if\n     * the trader wants to ensure the order never goes through, or they no longer trust the relayer,\n     * this function may be called to block it from ever matching at the contract level.\n     *\n     * Emits a Cancel event on success.\n     *\n     * @param order The order to be cancelled.\n     */\n    function cancelOrder(Order memory order) public {\n        require(order.trader == msg.sender, INVALID_TRADER);\n\n        bytes32 orderHash = getOrderHash(order);\n        cancelled[orderHash] = true;\n\n        emit Cancel(orderHash);\n    }\n\n    /**\n     * Calculates current state of the order. Will revert transaction if this order is not\n     * fillable for any reason, or if the order signature is invalid.\n     *\n     * @param orderParam The OrderParam object containing Order data.\n     * @param orderAddressSet An object containing addresses common across each order.\n     * @return An OrderInfo object containing the hash and current amount filled\n     */\n    function getOrderInfo(OrderParam memory orderParam, OrderAddressSet memory orderAddressSet)\n        internal\n        view\n        returns (OrderInfo memory orderInfo)\n    {\n        require(getOrderVersion(orderParam.data) == SUPPORTED_ORDER_VERSION, ORDER_VERSION_NOT_SUPPORTED);\n\n        Order memory order = getOrderFromOrderParam(orderParam, orderAddressSet);\n        orderInfo.orderHash = getOrderHash(order);\n        orderInfo.filledAmount = filled[orderInfo.orderHash];\n        uint8 status = uint8(OrderStatus.FILLABLE);\n\n        if (!isMarketBuy(order.data) && orderInfo.filledAmount >= order.baseTokenAmount) {\n            status = uint8(OrderStatus.FULLY_FILLED);\n        } else if (isMarketBuy(order.data) && orderInfo.filledAmount >= order.quoteTokenAmount) {\n            status = uint8(OrderStatus.FULLY_FILLED);\n        } else if (block.timestamp >= getExpiredAtFromOrderData(order.data)) {\n            status = uint8(OrderStatus.EXPIRED);\n        } else if (cancelled[orderInfo.orderHash]) {\n            status = uint8(OrderStatus.CANCELLED);\n        }\n\n        require(status == uint8(OrderStatus.FILLABLE), ORDER_IS_NOT_FILLABLE);\n        require(\n            isValidSignature(orderInfo.orderHash, orderParam.trader, orderParam.signature),\n            INVALID_ORDER_SIGNATURE\n        );\n\n        return orderInfo;\n    }\n\n    /**\n     * Reconstruct an Order object from the given OrderParam and OrderAddressSet objects.\n     *\n     * @param orderParam The OrderParam object containing the Order data.\n     * @param orderAddressSet An object containing addresses common across each order.\n     * @return The reconstructed Order object.\n     */\n    function getOrderFromOrderParam(OrderParam memory orderParam, OrderAddressSet memory orderAddressSet)\n        internal\n        pure\n        returns (Order memory order)\n    {\n        order.trader = orderParam.trader;\n        order.baseTokenAmount = orderParam.baseTokenAmount;\n        order.quoteTokenAmount = orderParam.quoteTokenAmount;\n        order.gasTokenAmount = orderParam.gasTokenAmount;\n        order.data = orderParam.data;\n        order.baseToken = orderAddressSet.baseToken;\n        order.quoteToken = orderAddressSet.quoteToken;\n        order.relayer = orderAddressSet.relayer;\n    }\n\n    /**\n     * Validates that the maker and taker orders can be matched based on the listed prices.\n     *\n     * If the taker submitted a sell order, the matching maker order must have a price greater than\n     * or equal to the price the taker is willing to sell for.\n     *\n     * Since the price of an order is computed by order.quoteTokenAmount / order.baseTokenAmount\n     * we can establish the following formula:\n     *\n     *    takerOrder.quoteTokenAmount        makerOrder.quoteTokenAmount\n     *   -----------------------------  <=  -----------------------------\n     *     takerOrder.baseTokenAmount        makerOrder.baseTokenAmount\n     *\n     * To avoid precision loss from division, we modify the formula to avoid division entirely.\n     * In shorthand, this becomes:\n     *\n     *   takerOrder.quote * makerOrder.base <= takerOrder.base * makerOrder.quote\n     *\n     * We can apply this same process to buy orders - if the taker submitted a buy order then\n     * the matching maker order must have a price less than or equal to the price the taker is\n     * willing to pay. This means we can use the same result as above, but simply flip the\n     * sign of the comparison operator.\n     *\n     * The function will revert the transaction if the orders cannot be matched.\n     *\n     * @param takerOrderParam The OrderParam object representing the taker's order data\n     * @param makerOrderParam The OrderParam object representing the maker's order data\n     */\n    function validatePrice(OrderParam memory takerOrderParam, OrderParam memory makerOrderParam)\n        internal\n        pure\n    {\n        uint256 left = takerOrderParam.quoteTokenAmount.mul(makerOrderParam.baseTokenAmount);\n        uint256 right = takerOrderParam.baseTokenAmount.mul(makerOrderParam.quoteTokenAmount);\n        require(isSell(takerOrderParam.data) ? left <= right : left >= right, INVALID_MATCH);\n    }\n\n    /**\n     * Construct a MatchResult from matching taker and maker order data, which will be used when\n     * settling the orders and transferring token.\n     *\n     * @param takerOrderParam The OrderParam object representing the taker's order data\n     * @param takerOrderInfo The OrderInfo object representing the current taker order state\n     * @param makerOrderParam The OrderParam object representing the maker's order data\n     * @param makerOrderInfo The OrderInfo object representing the current maker order state\n     * @param takerFeeRate The rate used to calculate the fee charged to the taker\n     * @param isParticipantRelayer Whether this relayer is participating in hot discount\n     * @return MatchResult object containing data that will be used during order settlement.\n     */\n    function getMatchResult(\n        OrderParam memory takerOrderParam,\n        OrderInfo memory takerOrderInfo,\n        OrderParam memory makerOrderParam,\n        OrderInfo memory makerOrderInfo,\n        uint256 baseTokenFilledAmount,\n        uint256 takerFeeRate,\n        bool isParticipantRelayer\n    )\n        internal\n        view\n        returns (MatchResult memory result)\n    {\n        result.baseTokenFilledAmount = baseTokenFilledAmount;\n        result.quoteTokenFilledAmount = convertBaseToQuote(makerOrderParam, baseTokenFilledAmount);\n\n        // Each order only pays gas once, so only pay gas when nothing has been filled yet.\n        if (takerOrderInfo.filledAmount == 0) {\n            result.takerGasFee = takerOrderParam.gasTokenAmount;\n        }\n\n        if (makerOrderInfo.filledAmount == 0) {\n            result.makerGasFee = makerOrderParam.gasTokenAmount;\n        }\n\n        if(!isMarketBuy(takerOrderParam.data)) {\n            takerOrderInfo.filledAmount = takerOrderInfo.filledAmount.add(result.baseTokenFilledAmount);\n            require(takerOrderInfo.filledAmount <= takerOrderParam.baseTokenAmount, TAKER_ORDER_OVER_MATCH);\n        } else {\n            takerOrderInfo.filledAmount = takerOrderInfo.filledAmount.add(result.quoteTokenFilledAmount);\n            require(takerOrderInfo.filledAmount <= takerOrderParam.quoteTokenAmount, TAKER_ORDER_OVER_MATCH);\n        }\n\n        makerOrderInfo.filledAmount = makerOrderInfo.filledAmount.add(result.baseTokenFilledAmount);\n        require(makerOrderInfo.filledAmount <= makerOrderParam.baseTokenAmount, MAKER_ORDER_OVER_MATCH);\n\n        result.maker = makerOrderParam.trader;\n        result.taker = takerOrderParam.trader;\n\n        if(isSell(takerOrderParam.data)) {\n            result.buyer = result.maker;\n        } else {\n            result.buyer = result.taker;\n        }\n\n        uint256 rebateRate = getMakerRebateRateFromOrderData(makerOrderParam.data);\n\n        if (rebateRate > 0) {\n            // If the rebate rate is not zero, maker pays no fees.\n            result.makerFee = 0;\n\n            // RebateRate will never exceed REBATE_RATE_BASE, so rebateFee will never exceed the fees paid by the taker.\n            result.makerRebate = result.quoteTokenFilledAmount.mul(takerFeeRate).mul(rebateRate).div(\n                FEE_RATE_BASE.mul(DISCOUNT_RATE_BASE).mul(REBATE_RATE_BASE)\n            );\n        } else {\n            uint256 makerRawFeeRate = getAsMakerFeeRateFromOrderData(makerOrderParam.data);\n            result.makerRebate = 0;\n\n            // maker fee will be reduced, but still >= 0\n            uint256 makerFeeRate = getFinalFeeRate(\n                makerOrderParam.trader,\n                makerRawFeeRate,\n                isParticipantRelayer\n            );\n\n            result.makerFee = result.quoteTokenFilledAmount.mul(makerFeeRate).div(\n                FEE_RATE_BASE.mul(DISCOUNT_RATE_BASE)\n            );\n        }\n\n        result.takerFee = result.quoteTokenFilledAmount.mul(takerFeeRate).div(\n            FEE_RATE_BASE.mul(DISCOUNT_RATE_BASE)\n        );\n    }\n\n    /**\n     * Get the rate used to calculate the taker fee.\n     *\n     * @param orderParam The OrderParam object representing the taker order data.\n     * @param isParticipantRelayer Whether this relayer is participating in hot discount.\n     * @return The final potentially discounted rate to use for the taker fee.\n     */\n    function getTakerFeeRate(OrderParam memory orderParam, bool isParticipantRelayer)\n        internal\n        view\n        returns(uint256)\n    {\n        uint256 rawRate = getAsTakerFeeRateFromOrderData(orderParam.data);\n        return getFinalFeeRate(orderParam.trader, rawRate, isParticipantRelayer);\n    }\n\n    /**\n     * Take a fee rate and calculate the potentially discounted rate for this trader based on\n     * HOT token ownership.\n     *\n     * @param trader The address of the trader who made the order.\n     * @param rate The raw rate which we will discount if needed.\n     * @param isParticipantRelayer Whether this relayer is participating in hot discount.\n     * @return The final potentially discounted rate.\n     */\n    function getFinalFeeRate(address trader, uint256 rate, bool isParticipantRelayer)\n        internal\n        view\n        returns(uint256)\n    {\n        if (isParticipantRelayer) {\n            return rate.mul(getDiscountedRate(trader));\n        } else {\n            return rate.mul(DISCOUNT_RATE_BASE);\n        }\n    }\n\n    /**\n     * Take an amount and convert it from base token units to quote token units based on the price\n     * in the order param.\n     *\n     * @param orderParam The OrderParam object containing the Order data.\n     * @param amount An amount of base token.\n     * @return The converted amount in quote token units.\n     */\n    function convertBaseToQuote(OrderParam memory orderParam, uint256 amount)\n        internal\n        pure\n        returns (uint256)\n    {\n        return getPartialAmountFloor(\n            orderParam.quoteTokenAmount,\n            orderParam.baseTokenAmount,\n            amount\n        );\n    }\n\n    /**\n     * Take an amount and convert it from quote token units to base token units based on the price\n     * in the order param.\n     *\n     * @param orderParam The OrderParam object containing the Order data.\n     * @param amount An amount of quote token.\n     * @return The converted amount in base token units.\n     */\n    function convertQuoteToBase(OrderParam memory orderParam, uint256 amount)\n        internal\n        pure\n        returns (uint256)\n    {\n        return getPartialAmountFloor(\n            orderParam.baseTokenAmount,\n            orderParam.quoteTokenAmount,\n            amount\n        );\n    }\n\n    /**\n     * Take a list of matches and settle them with the taker order, transferring tokens all tokens\n     * and paying all fees necessary to complete the transaction.\n     *\n     * @param results List of MatchResult objects representing each individual trade to settle.\n     * @param takerOrderParam The OrderParam object representing the taker order data.\n     * @param orderAddressSet An object containing addresses common across each order.\n     */\n    function settleResults(\n        MatchResult[] memory results,\n        OrderParam memory takerOrderParam,\n        OrderAddressSet memory orderAddressSet\n    )\n        internal\n    {\n        if (isSell(takerOrderParam.data)) {\n            settleTakerSell(results, orderAddressSet);\n        } else {\n            settleTakerBuy(results, orderAddressSet);\n        }\n    }\n\n    /**\n     * Settles a sell order given a list of MatchResult objects. A naive approach would be to take\n     * each result, have the taker and maker transfer the appropriate tokens, and then have them\n     * each send the appropriate fees to the relayer, meaning that for n makers there would be 4n\n     * transactions. Additionally the taker would have to have an allowance set for the quote token\n     * in order to pay the fees to the relayer.\n     *\n     * Instead we do the following:\n     *  - Taker transfers the required base token to each maker\n     *  - Each maker sends an amount of quote token to the relayer equal to:\n     *    [Amount owed to taker] + [Maker fee] + [Maker gas cost] - [Maker rebate amount]\n     *  - The relayer will then take all of this quote token and in a single batch transaction\n     *    send the appropriate amount to the taker, equal to:\n     *    [Total amount owed to taker] - [All taker fees] - [All taker gas costs]\n     *\n     * Thus in the end the taker will have the full amount of quote token, sans the fee and cost of\n     * their share of gas. Each maker will have their share of base token, sans the fee and cost of\n     * their share of gas, and will keep their rebate in quote token. The relayer will end up with\n     * the fees from the taker and each maker (sans rebate), and the gas costs will pay for the\n     * transactions. In this scenario, with n makers there will be 2n + 1 transactions, which will\n     * be a significant gas savings over the original method.\n     *\n     * @param results A list of MatchResult objects representing each individual trade to settle.\n     * @param orderAddressSet An object containing addresses common across each order.\n     */\n    function settleTakerSell(MatchResult[] memory results, OrderAddressSet memory orderAddressSet) internal {\n        uint256 totalTakerQuoteTokenFilledAmount = 0;\n\n        for (uint256 i = 0; i < results.length; i++) {\n            transferFrom(\n                orderAddressSet.baseToken,\n                results[i].taker,\n                results[i].maker,\n                results[i].baseTokenFilledAmount\n            );\n\n            transferFrom(\n                orderAddressSet.quoteToken,\n                results[i].maker,\n                orderAddressSet.relayer,\n                results[i].quoteTokenFilledAmount.\n                    add(results[i].makerFee).\n                    add(results[i].makerGasFee).\n                    sub(results[i].makerRebate)\n            );\n\n            totalTakerQuoteTokenFilledAmount = totalTakerQuoteTokenFilledAmount.add(\n                results[i].quoteTokenFilledAmount.sub(results[i].takerFee)\n            );\n\n            emitMatchEvent(results[i], orderAddressSet);\n        }\n\n        transferFrom(\n            orderAddressSet.quoteToken,\n            orderAddressSet.relayer,\n            results[0].taker,\n            totalTakerQuoteTokenFilledAmount.sub(results[0].takerGasFee)\n        );\n    }\n\n    /**\n     * Settles a buy order given a list of MatchResult objects. A naive approach would be to take\n     * each result, have the taker and maker transfer the appropriate tokens, and then have them\n     * each send the appropriate fees to the relayer, meaning that for n makers there would be 4n\n     * transactions. Additionally each maker would have to have an allowance set for the quote token\n     * in order to pay the fees to the relayer.\n     *\n     * Instead we do the following:\n     *  - Each maker transfers base tokens to the taker\n     *  - The taker sends an amount of quote tokens to each maker equal to:\n     *    [Amount owed to maker] + [Maker rebate amount] - [Maker fee] - [Maker gas cost]\n     *  - Since the taker saved all the maker fees and gas costs, it can then send them as a single\n     *    batch transaction to the relayer, equal to:\n     *    [All maker and taker fees] + [All maker and taker gas costs] - [All maker rebates]\n     *\n     * Thus in the end the taker will have the full amount of base token, sans the fee and cost of\n     * their share of gas. Each maker will have their share of quote token, including their rebate,\n     * but sans the fee and cost of their share of gas. The relayer will end up with the fees from\n     * the taker and each maker (sans rebates), and the gas costs will pay for the transactions. In\n     * this scenario, with n makers there will be 2n + 1 transactions, which will be a significant\n     * gas savings over the original method.\n     *\n     * @param results A list of MatchResult objects representing each individual trade to settle.\n     * @param orderAddressSet An object containing addresses common across each order.\n     */\n    function settleTakerBuy(MatchResult[] memory results, OrderAddressSet memory orderAddressSet) internal {\n        uint256 totalFee = 0;\n\n        for (uint256 i = 0; i < results.length; i++) {\n            transferFrom(\n                orderAddressSet.baseToken,\n                results[i].maker,\n                results[i].taker,\n                results[i].baseTokenFilledAmount\n            );\n\n            transferFrom(\n                orderAddressSet.quoteToken,\n                results[i].taker,\n                results[i].maker,\n                results[i].quoteTokenFilledAmount.\n                    sub(results[i].makerFee).\n                    sub(results[i].makerGasFee).\n                    add(results[i].makerRebate)\n            );\n\n            totalFee = totalFee.\n                add(results[i].takerFee).\n                add(results[i].makerFee).\n                add(results[i].makerGasFee).\n                add(results[i].takerGasFee).\n                sub(results[i].makerRebate);\n\n            emitMatchEvent(results[i], orderAddressSet);\n        }\n\n        transferFrom(\n            orderAddressSet.quoteToken,\n            results[0].taker,\n            orderAddressSet.relayer,\n            totalFee\n        );\n    }\n\n    /**\n     * A helper function to call the transferFrom function in Proxy.sol with solidity assembly.\n     * Copying the data in order to make an external call can be expensive, but performing the\n     * operations in assembly seems to reduce gas cost.\n     *\n     * The function will revert the transaction if the transfer fails.\n     *\n     * @param token The address of the ERC20 token we will be transferring, 0 for ETH.\n     * @param from The address we will be transferring from.\n     * @param to The address we will be transferring to.\n     * @param value The amount of token we will be transferring.\n     */\n    function transferFrom(address token, address from, address to, uint256 value) internal {\n        if (value == 0) {\n            return;\n        }\n\n        address proxy = proxyAddress;\n        uint256 result;\n\n        /**\n         * We construct calldata for the `Proxy.transferFrom` ABI.\n         * The layout of this calldata is in the table below.\n         *\n         * \n         *  Area    Offset  Length  Contents          \n         * \n         *  Header  0       4       function selector \n         *  Params  4       32      token address     \n         *          36      32      from address      \n         *          68      32      to address        \n         *          100     32      amount of token   \n         * \n         */\n        assembly {\n            // Keep these so we can restore stack memory upon completion\n            let tmp1 := mload(0)\n            let tmp2 := mload(4)\n            let tmp3 := mload(36)\n            let tmp4 := mload(68)\n            let tmp5 := mload(100)\n\n            // keccak256('transferFrom(address,address,address,uint256)') bitmasked to 4 bytes\n            mstore(0, 0x15dacbea00000000000000000000000000000000000000000000000000000000)\n            mstore(4, token)\n            mstore(36, from)\n            mstore(68, to)\n            mstore(100, value)\n\n            // Call Proxy contract transferFrom function using constructed calldata\n            result := call(\n                gas,   // Forward all gas\n                proxy, // Proxy.sol deployment address\n                0,     // Don't send any ETH\n                0,     // Pointer to start of calldata\n                132,   // Length of calldata\n                0,     // Output location\n                0      // We don't expect any output\n            )\n\n            // Restore stack memory\n            mstore(0, tmp1)\n            mstore(4, tmp2)\n            mstore(36, tmp3)\n            mstore(68, tmp4)\n            mstore(100, tmp5)\n        }\n\n        if (result == 0) {\n            revert(TRANSFER_FROM_FAILED);\n        }\n    }\n\n    function emitMatchEvent(MatchResult memory result, OrderAddressSet memory orderAddressSet) internal {\n        emit Match(\n            orderAddressSet, result\n        );\n    }\n}",
  "sourcePath": "/home/mohit/Desktop/dexhigh/countbapp/contracts/HybridExchange.sol",
  "compiler": {
    "name": "solc",
    "version": "0.4.24+commit.e67f0147.Emscripten.clang"
  },
  "schemaVersion": "3.3.1",
  "updatedAt": "2020-11-05T23:47:21.083Z",
  "networkType": "ethereum",
  "devdoc": {
    "methods": {
      "canMatchOrdersFrom(address)": {
        "return": "true if msg.sender is allowed to match orders which belong to relayer"
      },
      "cancelOrder((address,address,address,address,uint256,uint256,uint256,bytes32))": {
        "params": {
          "order": "The order to be cancelled."
        }
      },
      "changeDiscountConfig(bytes32)": {
        "params": {
          "newConfig": "A data blob representing the new discount config. Details on format above."
        }
      },
      "getDiscountedRate(address)": {
        "params": {
          "user": "The user address to calculate a fee discount for."
        },
        "return": "The percentage of the regular fee this user will pay."
      },
      "isOwner()": {
        "return": "true if `msg.sender` is the owner of the contract."
      },
      "isParticipant(address)": {
        "return": "true if relayer is participating in the Hydro incentive system."
      },
      "matchOrders((address,uint256,uint256,uint256,bytes32,(bytes32,bytes32,bytes32)),(address,uint256,uint256,uint256,bytes32,(bytes32,bytes32,bytes32))[],uint256[],(address,address,address))": {
        "params": {
          "makerOrderParams": "An array of OrderParam objects representing orders from a list of makers.",
          "orderAddressSet": "An object containing addresses common across each order.",
          "takerOrderParam": "A OrderParam object representing the order from the taker."
        }
      },
      "owner()": {
        "return": "the address of the owner."
      },
      "renounceOwnership()": {
        "details": "Allows the current owner to relinquish control of the contract."
      },
      "transferOwnership(address)": {
        "details": "Allows the current owner to transfer control of the contract to a newOwner.",
        "params": {
          "newOwner": "The address to transfer ownership to."
        }
      }
    }
  },
  "userdoc": {
    "methods": {
      "approveDelegate(address)": {
        "notice": "Approve an address to match orders on behalf of msg.sender"
      },
      "cancelOrder((address,address,address,address,uint256,uint256,uint256,bytes32))": {
        "notice": "Cancels an order, preventing it from being matched. In practice, matching mode relayers will generally handle cancellation off chain by removing the order from their system, however if the trader wants to ensure the order never goes through, or they no longer trust the relayer, this function may be called to block it from ever matching at the contract level.     * Emits a Cancel event on success."
      },
      "changeDiscountConfig(bytes32)": {
        "notice": "Owner can modify discount configuration."
      },
      "exitIncentiveSystem()": {
        "notice": "Exit the Hydro incentive system. For relayers that choose to opt-out, the Hydro Protocol effective becomes a tokenless protocol."
      },
      "getDiscountedRate(address)": {
        "notice": "Calculate and return the rate at which fees will be charged for an address. The discounted rate depends on how much HOT token is owned by the user. Values returned will be a percentage used to calculate how much of the fee is paid, so a return value of 100 means there is 0 discount, and a return value of 70 means a 30% rate reduction.     * The discountConfig is defined as such:                      length(bytes)   desc                          count              1               the count of configs         maxDiscountedRate  1               the max discounted rate      config             5 each                                           * The default discount structure as defined in code would give the following result:     * Fee discount table       HOT BALANCE     DISCOUNT        0 <= x < 10000      0%      10000 <= x < 20000     10%      20000 <= x < 30000     20%      30000 <= x < 40000     30%      40000 <= x             40%         * Breaking down the bytes of 0x043c000027106400004e205a000075305000009c404600000000000000000000     * 0x  04           3c          0000271064  00004e205a  0000753050  00009c4046  0000000000  0000000000;    ~~           ~~          ~~~~~~~~~~  ~~~~~~~~~~  ~~~~~~~~~~  ~~~~~~~~~~  ~~~~~~~~~~  ~~~~~~~~~~     |            |               |           |           |           |           |           |   count  maxDiscountedRate       1           2           3           4           5           6     * The first config breaks down as follows:  00002710   64                                          ~~~~~~~~   ~~                                              |      |                                             bar    rate     * Meaning if a user has less than 10000 (0x00002710) HOT, they will pay 100%(0x64) of the standard fee."
      },
      "joinIncentiveSystem()": {
        "notice": "Join the Hydro incentive system."
      },
      "matchOrders((address,uint256,uint256,uint256,bytes32,(bytes32,bytes32,bytes32)),(address,uint256,uint256,uint256,bytes32,(bytes32,bytes32,bytes32))[],uint256[],(address,address,address))": {
        "notice": "Match taker order to a list of maker orders. Common addresses are passed in separately as an OrderAddressSet to reduce call size data and save gas."
      },
      "renounceOwnership()": {
        "notice": "Renouncing to ownership will leave the contract without an owner. It will not be possible to call the functions with the `onlyOwner` modifier anymore."
      },
      "revokeDelegate(address)": {
        "notice": "Revoke an existing delegate"
      }
    }
  }
}