{
  "contractName": "LibOrder",
  "abi": [
    {
      "constant": true,
      "inputs": [],
      "name": "DOMAIN_SEPARATOR",
      "outputs": [
        {
          "name": "",
          "type": "bytes32"
        }
      ],
      "payable": false,
      "stateMutability": "view",
      "type": "function"
    },
    {
      "constant": true,
      "inputs": [],
      "name": "EIP712_ORDER_TYPE",
      "outputs": [
        {
          "name": "",
          "type": "bytes32"
        }
      ],
      "payable": false,
      "stateMutability": "view",
      "type": "function"
    },
    {
      "constant": true,
      "inputs": [],
      "name": "REBATE_RATE_BASE",
      "outputs": [
        {
          "name": "",
          "type": "uint256"
        }
      ],
      "payable": false,
      "stateMutability": "view",
      "type": "function"
    },
    {
      "constant": true,
      "inputs": [],
      "name": "EIP712_DOMAIN_TYPEHASH",
      "outputs": [
        {
          "name": "",
          "type": "bytes32"
        }
      ],
      "payable": false,
      "stateMutability": "view",
      "type": "function"
    }
  ],
  "bytecode": "0x608060405260405160200180807f454950373132446f6d61696e28737472696e67206e616d65290000000000000081525060190190506040516020818303038152906040526040518082805190602001908083835b6020831015156100795780518252602082019150602081019050602083039250610054565b6001836020036101000a03801982511681845116808217855250505050505090500191505060405180910390206040805190810160405280600e81526020017f487964726f2050726f746f636f6c0000000000000000000000000000000000008152506040518082805190602001908083835b60208310151561011157805182526020820191506020810190506020830392506100ec565b6001836020036101000a03801982511681845116808217855250505050505090500191505060405180910390206040516020018083600019166000191681526020018260001916600019168152602001925050506040516020818303038152906040526040518082805190602001908083835b6020831015156101a95780518252602082019150602081019050602083039250610184565b6001836020036101000a03801982511681845116808217855250505050505090500191505060405180910390206000816000191690555061038c806101ef6000396000f300608060405260043610610062576000357c0100000000000000000000000000000000000000000000000000000000900463ffffffff1680633644e515146100675780635373a1911461009257806363aaf8ec146100bd578063c7977be7146100e8575b600080fd5b34801561007357600080fd5b5061007c610113565b6040516100899190610269565b60405180910390f35b34801561009e57600080fd5b506100a7610119565b6040516100b49190610269565b60405180910390f35b3480156100c957600080fd5b506100d26101a1565b6040516100df9190610284565b60405180910390f35b3480156100f457600080fd5b506100fd6101a6565b60405161010a9190610269565b60405180910390f35b60005481565b60405160200180806102b4609f9139609f0190506040516020818303038152906040526040518082805190602001908083835b602083101515610171578051825260208201915060208101905060208303925061014c565b6001836020036101000a038019825116818451168082178552505050505050905001915050604051809103902081565b606481565b60405160200180807f454950373132446f6d61696e28737472696e67206e616d65290000000000000081525060190190506040516020818303038152906040526040518082805190602001908083835b60208310151561021b57805182526020820191506020810190506020830392506101f6565b6001836020036101000a038019825116818451168082178552505050505050905001915050604051809103902081565b6102548161029f565b82525050565b610263816102a9565b82525050565b600060208201905061027e600083018461024b565b92915050565b6000602082019050610299600083018461025a565b92915050565b6000819050919050565b600081905091905056004f726465722861646472657373207472616465722c616464726573732072656c617965722c616464726573732062617365546f6b656e2c616464726573732071756f7465546f6b656e2c75696e743235362062617365546f6b656e416d6f756e742c75696e743235362071756f7465546f6b656e416d6f756e742c75696e7432353620676173546f6b656e416d6f756e742c62797465733332206461746129a265627a7a72305820f8cfd0312cecba8aab03e37f5afb6114994760582719d0b513da8b8a785cf0736c6578706572696d656e74616cf50037",
  "source": "/*\n\n    Copyright 2018 The Hydro Protocol Foundation\n\n    Licensed under the Apache License, Version 2.0 (the \"License\");\n    you may not use this file except in compliance with the License.\n    You may obtain a copy of the License at\n\n        http://www.apache.org/licenses/LICENSE-2.0\n\n    Unless required by applicable law or agreed to in writing, software\n    distributed under the License is distributed on an \"AS IS\" BASIS,\n    WITHOUT WARRANTIES OR CONDITIONS OF ANY KIND, either express or implied.\n    See the License for the specific language governing permissions and\n    limitations under the License.\n\n*/\n\npragma solidity ^0.4.24;\npragma experimental ABIEncoderV2;\n\nimport \"./EIP712.sol\";\nimport \"./LibSignature.sol\";\nimport \"./LibMath.sol\";\n\ncontract LibOrder is EIP712, LibSignature, LibMath {\n\n    uint256 public constant REBATE_RATE_BASE = 100;\n\n    struct Order {\n        address trader;\n        address relayer;\n        address baseToken;\n        address quoteToken;\n        uint256 baseTokenAmount;\n        uint256 quoteTokenAmount;\n        uint256 gasTokenAmount;\n\n        /**\n         * Data contains the following values packed into 32 bytes\n         * ╔════════════════════╤═══════════════════════════════════════════════════════════╗\n         * ║                    │ length(bytes)   desc                                      ║\n         * ╟────────────────────┼───────────────────────────────────────────────────────────╢\n         * ║ version            │ 1               order version                             ║\n         * ║ side               │ 1               0: buy, 1: sell                           ║\n         * ║ isMarketOrder      │ 1               0: limitOrder, 1: marketOrder             ║\n         * ║ expiredAt          │ 5               order expiration time in seconds          ║\n         * ║ asMakerFeeRate     │ 2               maker fee rate (base 100,000)             ║\n         * ║ asTakerFeeRate     │ 2               taker fee rate (base 100,000)             ║\n         * ║ makerRebateRate    │ 2               rebate rate for maker (base 100)          ║\n         * ║ salt               │ 8               salt                                      ║\n         * ║ isMakerOnly        │ 1               is maker only                             ║\n         * ║                    │ 9               reserved                                  ║\n         * ╚════════════════════╧═══════════════════════════════════════════════════════════╝\n         */\n        bytes32 data;\n    }\n\n    enum OrderStatus {\n        EXPIRED,\n        CANCELLED,\n        FILLABLE,\n        FULLY_FILLED\n    }\n\n    bytes32 public constant EIP712_ORDER_TYPE = keccak256(\n        abi.encodePacked(\n            \"Order(address trader,address relayer,address baseToken,address quoteToken,uint256 baseTokenAmount,uint256 quoteTokenAmount,uint256 gasTokenAmount,bytes32 data)\"\n        )\n    );\n\n    /**\n     * Calculates the Keccak-256 EIP712 hash of the order using the Hydro Protocol domain.\n     *\n     * @param order The order data struct.\n     * @return Fully qualified EIP712 hash of the order in the Hydro Protocol domain.\n     */\n    function getOrderHash(Order memory order) internal view returns (bytes32 orderHash) {\n        orderHash = hashEIP712Message(hashOrder(order));\n        return orderHash;\n    }\n\n    /**\n     * Calculates the EIP712 hash of the order.\n     *\n     * @param order The order data struct.\n     * @return Hash of the order.\n     */\n    function hashOrder(Order memory order) internal pure returns (bytes32 result) {\n        /**\n         * Calculate the following hash in solidity assembly to save gas.\n         *\n         * keccak256(\n         *     abi.encodePacked(\n         *         EIP712_ORDER_TYPE,\n         *         bytes32(order.trader),\n         *         bytes32(order.relayer),\n         *         bytes32(order.baseToken),\n         *         bytes32(order.quoteToken),\n         *         order.baseTokenAmount,\n         *         order.quoteTokenAmount,\n         *         order.gasTokenAmount,\n         *         order.data\n         *     )\n         * );\n         */\n\n        bytes32 orderType = EIP712_ORDER_TYPE;\n\n        assembly {\n            let start := sub(order, 32)\n            let tmp := mload(start)\n\n            // 288 = (1 + 8) * 32\n            //\n            // [0...32)   bytes: EIP712_ORDER_TYPE\n            // [32...288) bytes: order\n            mstore(start, orderType)\n            result := keccak256(start, 288)\n\n            mstore(start, tmp)\n        }\n\n        return result;\n    }\n\n    /* Functions to extract info from data bytes in Order struct */\n\n    function getOrderVersion(bytes32 data) internal pure returns (uint256) {\n        return uint256(byte(data));\n    }\n\n    function getExpiredAtFromOrderData(bytes32 data) internal pure returns (uint256) {\n        return uint256(bytes5(data << (8*3)));\n    }\n\n    function isSell(bytes32 data) internal pure returns (bool) {\n        return data[1] == 1;\n    }\n\n    function isMarketOrder(bytes32 data) internal pure returns (bool) {\n        return data[2] == 1;\n    }\n\n    function isMakerOnly(bytes32 data) internal pure returns (bool) {\n        return data[22] == 1;\n    }\n\n    function isMarketBuy(bytes32 data) internal pure returns (bool) {\n        return !isSell(data) && isMarketOrder(data);\n    }\n\n    function getAsMakerFeeRateFromOrderData(bytes32 data) internal pure returns (uint256) {\n        return uint256(bytes2(data << (8*8)));\n    }\n\n    function getAsTakerFeeRateFromOrderData(bytes32 data) internal pure returns (uint256) {\n        return uint256(bytes2(data << (8*10)));\n    }\n\n    function getMakerRebateRateFromOrderData(bytes32 data) internal pure returns (uint256) {\n        uint256 makerRebate = uint256(bytes2(data << (8*12)));\n\n        // make sure makerRebate will never be larger than REBATE_RATE_BASE, which is 100\n        return min(makerRebate, REBATE_RATE_BASE);\n    }\n}",
  "sourcePath": "/home/mohit/Desktop/dexhigh/countbapp/contracts/lib/LibOrder.sol",
  "compiler": {
    "name": "solc",
    "version": "0.4.24+commit.e67f0147.Emscripten.clang"
  },
  "schemaVersion": "3.3.1",
  "updatedAt": "2020-11-05T23:23:08.780Z",
  "devdoc": {
    "methods": {}
  },
  "userdoc": {
    "methods": {}
  }
}