{
  "contractName": "LibRelayer",
  "abi": [
    {
      "constant": true,
      "inputs": [
        {
          "name": "",
          "type": "address"
        },
        {
          "name": "",
          "type": "address"
        }
      ],
      "name": "relayerDelegates",
      "outputs": [
        {
          "name": "",
          "type": "bool"
        }
      ],
      "payable": false,
      "stateMutability": "view",
      "type": "function"
    },
    {
      "anonymous": false,
      "inputs": [
        {
          "indexed": true,
          "name": "relayer",
          "type": "address"
        },
        {
          "indexed": true,
          "name": "delegate",
          "type": "address"
        }
      ],
      "name": "RelayerApproveDelegate",
      "type": "event"
    },
    {
      "anonymous": false,
      "inputs": [
        {
          "indexed": true,
          "name": "relayer",
          "type": "address"
        },
        {
          "indexed": true,
          "name": "delegate",
          "type": "address"
        }
      ],
      "name": "RelayerRevokeDelegate",
      "type": "event"
    },
    {
      "anonymous": false,
      "inputs": [
        {
          "indexed": true,
          "name": "relayer",
          "type": "address"
        }
      ],
      "name": "RelayerExit",
      "type": "event"
    },
    {
      "anonymous": false,
      "inputs": [
        {
          "indexed": true,
          "name": "relayer",
          "type": "address"
        }
      ],
      "name": "RelayerJoin",
      "type": "event"
    },
    {
      "constant": false,
      "inputs": [
        {
          "name": "delegate",
          "type": "address"
        }
      ],
      "name": "approveDelegate",
      "outputs": [],
      "payable": false,
      "stateMutability": "nonpayable",
      "type": "function"
    },
    {
      "constant": false,
      "inputs": [
        {
          "name": "delegate",
          "type": "address"
        }
      ],
      "name": "revokeDelegate",
      "outputs": [],
      "payable": false,
      "stateMutability": "nonpayable",
      "type": "function"
    },
    {
      "constant": true,
      "inputs": [
        {
          "name": "relayer",
          "type": "address"
        }
      ],
      "name": "canMatchOrdersFrom",
      "outputs": [
        {
          "name": "",
          "type": "bool"
        }
      ],
      "payable": false,
      "stateMutability": "view",
      "type": "function"
    },
    {
      "constant": false,
      "inputs": [],
      "name": "joinIncentiveSystem",
      "outputs": [],
      "payable": false,
      "stateMutability": "nonpayable",
      "type": "function"
    },
    {
      "constant": false,
      "inputs": [],
      "name": "exitIncentiveSystem",
      "outputs": [],
      "payable": false,
      "stateMutability": "nonpayable",
      "type": "function"
    },
    {
      "constant": true,
      "inputs": [
        {
          "name": "relayer",
          "type": "address"
        }
      ],
      "name": "isParticipant",
      "outputs": [
        {
          "name": "",
          "type": "bool"
        }
      ],
      "payable": false,
      "stateMutability": "view",
      "type": "function"
    }
  ],
  "bytecode": "0x608060405234801561001057600080fd5b50610700806100206000396000f300608060405260043610610083576000357c0100000000000000000000000000000000000000000000000000000000900463ffffffff16806306df453e1461008857806331d48447146100cb5780633560c5cd146101465780633e5893be1461015d578063929066f5146101b8578063b875bdf114610213578063fa352c001461022a575b600080fd5b34801561009457600080fd5b506100c9600480360381019080803573ffffffffffffffffffffffffffffffffffffffff16906020019092919050505061026d565b005b3480156100d757600080fd5b5061012c600480360381019080803573ffffffffffffffffffffffffffffffffffffffff169060200190929190803573ffffffffffffffffffffffffffffffffffffffff16906020019092919050505061035e565b604051808215151515815260200191505060405180910390f35b34801561015257600080fd5b5061015b61038d565b005b34801561016957600080fd5b5061019e600480360381019080803573ffffffffffffffffffffffffffffffffffffffff169060200190929190505050610429565b604051808215151515815260200191505060405180910390f35b3480156101c457600080fd5b506101f9600480360381019080803573ffffffffffffffffffffffffffffffffffffffff1690602001909291905050506104f8565b604051808215151515815260200191505060405180910390f35b34801561021f57600080fd5b5061022861054f565b005b34801561023657600080fd5b5061026b600480360381019080803573ffffffffffffffffffffffffffffffffffffffff1690602001909291905050506105e3565b005b60016000803373ffffffffffffffffffffffffffffffffffffffff1673ffffffffffffffffffffffffffffffffffffffff16815260200190815260200160002060008373ffffffffffffffffffffffffffffffffffffffff1673ffffffffffffffffffffffffffffffffffffffff16815260200190815260200160002060006101000a81548160ff0219169083151502179055508073ffffffffffffffffffffffffffffffffffffffff163373ffffffffffffffffffffffffffffffffffffffff167f7fa92f6e23fcdb0b7a7001ea137560a8ebee9b8302d16e3b37c64ae7116b69ad60405160405180910390a350565b60006020528160005260406000206020528060005260406000206000915091509054906101000a900460ff1681565b60018060003373ffffffffffffffffffffffffffffffffffffffff1673ffffffffffffffffffffffffffffffffffffffff16815260200190815260200160002060006101000a81548160ff0219169083151502179055503373ffffffffffffffffffffffffffffffffffffffff167f9bdfcd96a99ab6dad403b4ef4562bb3471fdeaab5e699160abf7c3f2cbe6680560405160405180910390a2565b60008173ffffffffffffffffffffffffffffffffffffffff163373ffffffffffffffffffffffffffffffffffffffff1614806104f15750600115156000808473ffffffffffffffffffffffffffffffffffffffff1673ffffffffffffffffffffffffffffffffffffffff16815260200190815260200160002060003373ffffffffffffffffffffffffffffffffffffffff1673ffffffffffffffffffffffffffffffffffffffff16815260200190815260200160002060009054906101000a900460ff161515145b9050919050565b6000600160008373ffffffffffffffffffffffffffffffffffffffff1673ffffffffffffffffffffffffffffffffffffffff16815260200190815260200160002060009054906101000a900460ff16159050919050565b600160003373ffffffffffffffffffffffffffffffffffffffff1673ffffffffffffffffffffffffffffffffffffffff16815260200190815260200160002060006101000a81549060ff02191690553373ffffffffffffffffffffffffffffffffffffffff167fc3dd8edec722273de2ffd31b47b4f106689ae891ac1bfddf7ae6190589ab0f6760405160405180910390a2565b60008060003373ffffffffffffffffffffffffffffffffffffffff1673ffffffffffffffffffffffffffffffffffffffff16815260200190815260200160002060008373ffffffffffffffffffffffffffffffffffffffff1673ffffffffffffffffffffffffffffffffffffffff16815260200190815260200160002060006101000a81548160ff0219169083151502179055508073ffffffffffffffffffffffffffffffffffffffff163373ffffffffffffffffffffffffffffffffffffffff167fa6568d7ca1ae4c87043ca12f90308b8ef94330ee3a047c2101e1a40812d26c9860405160405180910390a3505600a165627a7a7230582034b363a10de40262f479eb09b0e23c3f18ef988c4259ec2d6a4a4d52b2647ef40029",
  "source": "/*\n\n    Copyright 2018 The Hydro Protocol Foundation\n\n    Licensed under the Apache License, Version 2.0 (the \"License\");\n    you may not use this file except in compliance with the License.\n    You may obtain a copy of the License at\n\n        http://www.apache.org/licenses/LICENSE-2.0\n\n    Unless required by applicable law or agreed to in writing, software\n    distributed under the License is distributed on an \"AS IS\" BASIS,\n    WITHOUT WARRANTIES OR CONDITIONS OF ANY KIND, either express or implied.\n    See the License for the specific language governing permissions and\n    limitations under the License.\n\n*/\n\npragma solidity ^0.4.24;\n\n/**\n * @title LibRelayer provides two distinct features for relayers. \n *\n * First, Relayers can opt into or out of the Hydro liquidity incentive system.\n *\n * Second, a relayer can register a delegate address.\n * Delegates can send matching requests on behalf of relayers.\n * The delegate scheme allows additional possibilities for smart contract interaction.\n * on behalf of the relayer.\n */\ncontract LibRelayer {\n\n    /**\n     * Mapping of relayerAddress => delegateAddress\n     */\n    mapping (address => mapping (address => bool)) public relayerDelegates;\n\n    /**\n     * Mapping of relayerAddress => whether relayer is opted out of the liquidity incentive system\n     */\n    mapping (address => bool) hasExited;\n\n    event RelayerApproveDelegate(address indexed relayer, address indexed delegate);\n    event RelayerRevokeDelegate(address indexed relayer, address indexed delegate);\n\n    event RelayerExit(address indexed relayer);\n    event RelayerJoin(address indexed relayer);\n\n    /**\n     * Approve an address to match orders on behalf of msg.sender\n     */\n    function approveDelegate(address delegate) external {\n        relayerDelegates[msg.sender][delegate] = true;\n        emit RelayerApproveDelegate(msg.sender, delegate);\n    }\n\n    /**\n     * Revoke an existing delegate\n     */\n    function revokeDelegate(address delegate) external {\n        relayerDelegates[msg.sender][delegate] = false;\n        emit RelayerRevokeDelegate(msg.sender, delegate);\n    }\n\n    /**\n     * @return true if msg.sender is allowed to match orders which belong to relayer\n     */\n    function canMatchOrdersFrom(address relayer) public view returns(bool) {\n        return msg.sender == relayer || relayerDelegates[relayer][msg.sender] == true;\n    }\n\n    /**\n     * Join the Hydro incentive system.\n     */\n    function joinIncentiveSystem() external {\n        delete hasExited[msg.sender];\n        emit RelayerJoin(msg.sender);\n    }\n\n    /**\n     * Exit the Hydro incentive system.\n     * For relayers that choose to opt-out, the Hydro Protocol\n     * effective becomes a tokenless protocol.\n     */\n    function exitIncentiveSystem() external {\n        hasExited[msg.sender] = true;\n        emit RelayerExit(msg.sender);\n    }\n\n    /**\n     * @return true if relayer is participating in the Hydro incentive system.\n     */\n    function isParticipant(address relayer) public view returns(bool) {\n        return !hasExited[relayer];\n    }\n}",
  "sourcePath": "/home/mohit/Desktop/dexhigh/countbapp/contracts/lib/LibRelayer.sol",
  "compiler": {
    "name": "solc",
    "version": "0.4.24+commit.e67f0147.Emscripten.clang"
  },
  "schemaVersion": "3.3.1",
  "updatedAt": "2020-11-05T23:23:08.785Z",
  "devdoc": {
    "methods": {
      "canMatchOrdersFrom(address)": {
        "return": "true if msg.sender is allowed to match orders which belong to relayer"
      },
      "isParticipant(address)": {
        "return": "true if relayer is participating in the Hydro incentive system."
      }
    },
    "title": "LibRelayer provides two distinct features for relayers.  * First, Relayers can opt into or out of the Hydro liquidity incentive system. * Second, a relayer can register a delegate address. Delegates can send matching requests on behalf of relayers. The delegate scheme allows additional possibilities for smart contract interaction. on behalf of the relayer."
  },
  "userdoc": {
    "methods": {
      "approveDelegate(address)": {
        "notice": "Approve an address to match orders on behalf of msg.sender"
      },
      "exitIncentiveSystem()": {
        "notice": "Exit the Hydro incentive system. For relayers that choose to opt-out, the Hydro Protocol effective becomes a tokenless protocol."
      },
      "joinIncentiveSystem()": {
        "notice": "Join the Hydro incentive system."
      },
      "revokeDelegate(address)": {
        "notice": "Revoke an existing delegate"
      }
    }
  }
}