{
  "contractName": "TestMath",
  "abi": [
    {
      "constant": true,
      "inputs": [
        {
          "name": "a",
          "type": "uint256"
        },
        {
          "name": "b",
          "type": "uint256"
        },
        {
          "name": "c",
          "type": "uint256"
        }
      ],
      "name": "isRoundingErrorPublic",
      "outputs": [
        {
          "name": "",
          "type": "bool"
        }
      ],
      "payable": false,
      "stateMutability": "pure",
      "type": "function"
    },
    {
      "constant": true,
      "inputs": [
        {
          "name": "a",
          "type": "uint256"
        },
        {
          "name": "b",
          "type": "uint256"
        },
        {
          "name": "c",
          "type": "uint256"
        }
      ],
      "name": "getPartialAmountFloorPublic",
      "outputs": [
        {
          "name": "",
          "type": "uint256"
        }
      ],
      "payable": false,
      "stateMutability": "pure",
      "type": "function"
    },
    {
      "constant": true,
      "inputs": [
        {
          "name": "a",
          "type": "uint256"
        },
        {
          "name": "b",
          "type": "uint256"
        }
      ],
      "name": "minPublic",
      "outputs": [
        {
          "name": "",
          "type": "uint256"
        }
      ],
      "payable": false,
      "stateMutability": "pure",
      "type": "function"
    }
  ],
  "bytecode": "0x608060405234801561001057600080fd5b506104ab806100206000396000f300608060405260043610610057576000357c0100000000000000000000000000000000000000000000000000000000900463ffffffff1680631ef0242d1461005c578063c6e2e7f9146100b1578063cf72a318146100fc575b600080fd5b34801561006857600080fd5b5061009b600480360381019080803590602001909291908035906020019092919080359060200190929190505050610155565b6040518082815260200191505060405180910390f35b3480156100bd57600080fd5b506100e6600480360381019080803590602001909291908035906020019092919050505061016b565b6040518082815260200191505060405180910390f35b34801561010857600080fd5b5061013b60048036038101908080359060200190929190803590602001909291908035906020019092919050505061017f565b604051808215151515815260200191505060405180910390f35b6000610162848484610195565b90509392505050565b60006101778383610245565b905092915050565b600061018c84848461025e565b90509392505050565b60006101a284848461025e565b151515610217576040517f08c379a000000000000000000000000000000000000000000000000000000000815260040180806020018281038252600e8152602001807f524f554e44494e475f4552524f5200000000000000000000000000000000000081525060200191505060405180910390fd5b61023c8361022e84876102b790919063ffffffff16565b61035e90919063ffffffff16565b90509392505050565b60008183106102545781610256565b825b905092915050565b600061027382856102b790919063ffffffff16565b6102ac6103e861029e86610290878a6102b790919063ffffffff16565b6103f190919063ffffffff16565b6102b790919063ffffffff16565b101590509392505050565b60008060008414156102cc5760009150610357565b82840290508284828115156102dd57fe5b04141515610353576040517f08c379a00000000000000000000000000000000000000000000000000000000081526004018080602001828103825260098152602001807f4d554c5f4552524f52000000000000000000000000000000000000000000000081525060200191505060405180910390fd5b8091505b5092915050565b6000806000831115156103d9576040517f08c379a000000000000000000000000000000000000000000000000000000000815260040180806020018281038252600e8152602001807f4449564944494e475f4552524f5200000000000000000000000000000000000081525060200191505060405180910390fd5b82848115156103e457fe5b0490508091505092915050565b600080821415151561046b576040517f08c379a00000000000000000000000000000000000000000000000000000000081526004018080602001828103825260098152602001807f4d4f445f4552524f52000000000000000000000000000000000000000000000081525060200191505060405180910390fd5b818381151561047657fe5b069050929150505600a165627a7a72305820e96ac55f6ace0c337dde88f98ba576ff1f7f9cf7f99b65f06e5c60344986c9860029",
  "source": "pragma solidity 0.4.24;\n\nimport \"../lib/LibMath.sol\";\n\n// Test wrapper\n\ncontract TestMath is LibMath {\n    function isRoundingErrorPublic(uint256 a, uint256 b, uint256 c) public pure returns (bool) {\n        return isRoundingError(a, b, c);\n    }\n\n    function getPartialAmountFloorPublic(uint256 a, uint256 b, uint256 c) public pure returns (uint256) {\n        return getPartialAmountFloor(a, b, c);\n    }\n    \n    function minPublic(uint256 a, uint256 b) public pure returns (uint256) {\n        return min(a, b);\n    }\n}",
  "sourcePath": "/home/mohit/Desktop/dexhigh/countbapp/contracts/helper/TestMath.sol",
  "compiler": {
    "name": "solc",
    "version": "0.4.24+commit.e67f0147.Emscripten.clang"
  },
  "schemaVersion": "3.3.1",
  "updatedAt": "2020-11-05T23:23:08.734Z",
  "devdoc": {
    "methods": {}
  },
  "userdoc": {
    "methods": {}
  }
}