{
  "contractName": "TestOrder",
  "abi": [
    {
      "constant": true,
      "inputs": [],
      "name": "DOMAIN_SEPARATOR",
      "outputs": [
        {
          "name": "",
          "type": "bytes32"
        }
      ],
      "payable": false,
      "stateMutability": "view",
      "type": "function"
    },
    {
      "constant": true,
      "inputs": [],
      "name": "EIP712_ORDER_TYPE",
      "outputs": [
        {
          "name": "",
          "type": "bytes32"
        }
      ],
      "payable": false,
      "stateMutability": "view",
      "type": "function"
    },
    {
      "constant": true,
      "inputs": [],
      "name": "REBATE_RATE_BASE",
      "outputs": [
        {
          "name": "",
          "type": "uint256"
        }
      ],
      "payable": false,
      "stateMutability": "view",
      "type": "function"
    },
    {
      "constant": true,
      "inputs": [],
      "name": "EIP712_DOMAIN_TYPEHASH",
      "outputs": [
        {
          "name": "",
          "type": "bytes32"
        }
      ],
      "payable": false,
      "stateMutability": "view",
      "type": "function"
    },
    {
      "constant": true,
      "inputs": [
        {
          "name": "data",
          "type": "bytes32"
        }
      ],
      "name": "getExpiredAtFromOrderDataPublic",
      "outputs": [
        {
          "name": "",
          "type": "uint256"
        }
      ],
      "payable": false,
      "stateMutability": "pure",
      "type": "function"
    },
    {
      "constant": true,
      "inputs": [
        {
          "name": "data",
          "type": "bytes32"
        }
      ],
      "name": "isSellPublic",
      "outputs": [
        {
          "name": "",
          "type": "bool"
        }
      ],
      "payable": false,
      "stateMutability": "pure",
      "type": "function"
    },
    {
      "constant": true,
      "inputs": [
        {
          "name": "data",
          "type": "bytes32"
        }
      ],
      "name": "isMarketOrderPublic",
      "outputs": [
        {
          "name": "",
          "type": "bool"
        }
      ],
      "payable": false,
      "stateMutability": "pure",
      "type": "function"
    },
    {
      "constant": true,
      "inputs": [
        {
          "name": "data",
          "type": "bytes32"
        }
      ],
      "name": "isMarketBuyPublic",
      "outputs": [
        {
          "name": "",
          "type": "bool"
        }
      ],
      "payable": false,
      "stateMutability": "pure",
      "type": "function"
    },
    {
      "constant": true,
      "inputs": [
        {
          "name": "data",
          "type": "bytes32"
        }
      ],
      "name": "getAsMakerFeeRateFromOrderDataPublic",
      "outputs": [
        {
          "name": "",
          "type": "uint256"
        }
      ],
      "payable": false,
      "stateMutability": "pure",
      "type": "function"
    },
    {
      "constant": true,
      "inputs": [
        {
          "name": "data",
          "type": "bytes32"
        }
      ],
      "name": "getAsTakerFeeRateFromOrderDataPublic",
      "outputs": [
        {
          "name": "",
          "type": "uint256"
        }
      ],
      "payable": false,
      "stateMutability": "pure",
      "type": "function"
    },
    {
      "constant": true,
      "inputs": [
        {
          "name": "data",
          "type": "bytes32"
        }
      ],
      "name": "getMakerRebateRateFromOrderDataPublic",
      "outputs": [
        {
          "name": "",
          "type": "uint256"
        }
      ],
      "payable": false,
      "stateMutability": "pure",
      "type": "function"
    },
    {
      "constant": true,
      "inputs": [
        {
          "name": "data",
          "type": "bytes32"
        }
      ],
      "name": "isMakerOnlyPublic",
      "outputs": [
        {
          "name": "",
          "type": "bool"
        }
      ],
      "payable": false,
      "stateMutability": "pure",
      "type": "function"
    }
  ],
  "bytecode": "0x608060405260405160200180807f454950373132446f6d61696e28737472696e67206e616d65290000000000000081525060190190506040516020818303038152906040526040518082805190602001908083835b6020831015156100795780518252602082019150602081019050602083039250610054565b6001836020036101000a03801982511681845116808217855250505050505090500191505060405180910390206040805190810160405280600e81526020017f487964726f2050726f746f636f6c0000000000000000000000000000000000008152506040518082805190602001908083835b60208310151561011157805182526020820191506020810190506020830392506100ec565b6001836020036101000a03801982511681845116808217855250505050505090500191505060405180910390206040516020018083600019166000191681526020018260001916600019168152602001925050506040516020818303038152906040526040518082805190602001908083835b6020831015156101a95780518252602082019150602081019050602083039250610184565b6001836020036101000a0380198251168184511680821785525050505050509050019150506040518091039020600081600019169055506108f9806101ef6000396000f3006080604052600436106100ba576000357c0100000000000000000000000000000000000000000000000000000000900463ffffffff16806306cc8a7c146100bf57806317d5bba21461010457806327e86bf1146101495780633644e5151461018e5780634a578874146101c15780634a9cc99d1461020a5780635373a19114610253578063561bed641461028657806363aaf8ec146102cf578063b8f36bb7146102fa578063bb67794c1461033f578063c7977be714610388575b600080fd5b3480156100cb57600080fd5b506100ee60048036038101908080356000191690602001909291905050506103bb565b6040518082815260200191505060405180910390f35b34801561011057600080fd5b5061013360048036038101908080356000191690602001909291905050506103cd565b6040518082815260200191505060405180910390f35b34801561015557600080fd5b5061017860048036038101908080356000191690602001909291905050506103df565b6040518082815260200191505060405180910390f35b34801561019a57600080fd5b506101a36103f1565b60405180826000191660001916815260200191505060405180910390f35b3480156101cd57600080fd5b506101f060048036038101908080356000191690602001909291905050506103f7565b604051808215151515815260200191505060405180910390f35b34801561021657600080fd5b506102396004803603810190808035600019169060200190929190505050610409565b604051808215151515815260200191505060405180910390f35b34801561025f57600080fd5b5061026861041b565b60405180826000191660001916815260200191505060405180910390f35b34801561029257600080fd5b506102b560048036038101908080356000191690602001909291905050506104a3565b604051808215151515815260200191505060405180910390f35b3480156102db57600080fd5b506102e46104b5565b6040518082815260200191505060405180910390f35b34801561030657600080fd5b5061032960048036038101908080356000191690602001909291905050506104ba565b6040518082815260200191505060405180910390f35b34801561034b57600080fd5b5061036e60048036038101908080356000191690602001909291905050506104cc565b604051808215151515815260200191505060405180910390f35b34801561039457600080fd5b5061039d6104de565b60405180826000191660001916815260200191505060405180910390f35b60006103c682610583565b9050919050565b60006103d8826105ba565b9050919050565b60006103ea82610600565b9050919050565b60005481565b600061040282610634565b9050919050565b600061041482610658565b9050919050565b604051602001808061082f609f9139609f0190506040516020818303038152906040526040518082805190602001908083835b602083101515610473578051825260208201915060208101905060208303925061044e565b6001836020036101000a038019825116818451168082178552505050505050905001915050604051809103902081565b60006104ae826106da565b9050919050565b606481565b60006104c58261075c565b9050919050565b60006104d782610793565b9050919050565b60405160200180807f454950373132446f6d61696e28737472696e67206e616d65290000000000000081525060190190506040516020818303038152906040526040518082805190602001908083835b602083101515610553578051825260208201915060208101905060208303925061052e565b6001836020036101000a038019825116818451168082178552505050505050905001915050604051809103902081565b6000604082600019169060020a027e0100000000000000000000000000000000000000000000000000000000000090049050919050565b600080606083600019169060020a027e01000000000000000000000000000000000000000000000000000000000000900490506105f8816064610815565b915050919050565b6000601882600019169060020a027b0100000000000000000000000000000000000000000000000000000090049050919050565b600061063f826106da565b158015610651575061065082610658565b5b9050919050565b600060017f01000000000000000000000000000000000000000000000000000000000000000282600260208110151561068d57fe5b1a7f0100000000000000000000000000000000000000000000000000000000000000027effffffffffffffffffffffffffffffffffffffffffffffffffffffffffffff1916149050919050565b600060017f01000000000000000000000000000000000000000000000000000000000000000282600160208110151561070f57fe5b1a7f0100000000000000000000000000000000000000000000000000000000000000027effffffffffffffffffffffffffffffffffffffffffffffffffffffffffffff1916149050919050565b6000605082600019169060020a027e0100000000000000000000000000000000000000000000000000000000000090049050919050565b600060017f0100000000000000000000000000000000000000000000000000000000000000028260166020811015156107c857fe5b1a7f0100000000000000000000000000000000000000000000000000000000000000027effffffffffffffffffffffffffffffffffffffffffffffffffffffffffffff1916149050919050565b60008183106108245781610826565b825b90509291505056004f726465722861646472657373207472616465722c616464726573732072656c617965722c616464726573732062617365546f6b656e2c616464726573732071756f7465546f6b656e2c75696e743235362062617365546f6b656e416d6f756e742c75696e743235362071756f7465546f6b656e416d6f756e742c75696e7432353620676173546f6b656e416d6f756e742c62797465733332206461746129a165627a7a723058204aa78dae7209fe0b023db2f0df223d90a9297ff76a31c171b3f822bbdc3572580029",
  "source": "pragma solidity 0.4.24;\r\n\r\nimport \"../lib/LibOrder.sol\";\r\n\r\n// Test wrapper\r\n\r\ncontract TestOrder is LibOrder {\r\n    function getExpiredAtFromOrderDataPublic(bytes32 data) public pure returns (uint256) {\r\n        return getExpiredAtFromOrderData(data);\r\n    }\r\n\r\n    function isSellPublic(bytes32 data) public pure returns (bool) {\r\n        return isSell(data);\r\n    }\r\n\r\n    function isMarketOrderPublic(bytes32 data) public pure returns (bool) {\r\n        return isMarketOrder(data);\r\n    }\r\n\r\n    function isMarketBuyPublic(bytes32 data) public pure returns (bool) {\r\n        return isMarketBuy(data);\r\n    }\r\n\r\n    function getAsMakerFeeRateFromOrderDataPublic(bytes32 data) public pure returns (uint256) {\r\n        return getAsMakerFeeRateFromOrderData(data);\r\n    }\r\n\r\n    function getAsTakerFeeRateFromOrderDataPublic(bytes32 data) public pure returns (uint256) {\r\n        return getAsTakerFeeRateFromOrderData(data);\r\n    }\r\n\r\n    function getMakerRebateRateFromOrderDataPublic(bytes32 data) public pure returns (uint256) {\r\n        return getMakerRebateRateFromOrderData(data);\r\n    }\r\n\r\n    function isMakerOnlyPublic(bytes32 data) public pure returns (bool) {\r\n        return isMakerOnly(data);\r\n    }\r\n}",
  "sourcePath": "/home/mohit/Desktop/dexhigh/countbapp/contracts/helper/TestOrder.sol",
  "compiler": {
    "name": "solc",
    "version": "0.4.24+commit.e67f0147.Emscripten.clang"
  },
  "schemaVersion": "3.3.1",
  "updatedAt": "2020-11-05T23:23:08.734Z",
  "devdoc": {
    "methods": {}
  },
  "userdoc": {
    "methods": {}
  }
}