{
  "contractName": "TestSignature",
  "abi": [
    {
      "constant": true,
      "inputs": [
        {
          "name": "hash",
          "type": "bytes32"
        },
        {
          "name": "addr",
          "type": "address"
        },
        {
          "components": [
            {
              "name": "config",
              "type": "bytes32"
            },
            {
              "name": "r",
              "type": "bytes32"
            },
            {
              "name": "s",
              "type": "bytes32"
            }
          ],
          "name": "orderSignature",
          "type": "tuple"
        }
      ],
      "name": "isValidSignaturePublic",
      "outputs": [
        {
          "name": "",
          "type": "bool"
        }
      ],
      "payable": false,
      "stateMutability": "pure",
      "type": "function"
    }
  ],
  "bytecode": "0x608060405234801561001057600080fd5b506105df806100206000396000f300608060405260043610610041576000357c0100000000000000000000000000000000000000000000000000000000900463ffffffff1680635a9b1cfe14610046575b600080fd5b34801561005257600080fd5b5061006d600480360361006891908101906103f8565b610083565b60405161007a91906104ab565b60405180910390f35b6000610090848484610099565b90509392505050565b600080600080846000015160016020811015156100b257fe5b1a7f0100000000000000000000000000000000000000000000000000000000000000027f0100000000000000000000000000000000000000000000000000000000000000900492508460000151600060208110151561010d57fe5b1a7f0100000000000000000000000000000000000000000000000000000000000000027f0100000000000000000000000000000000000000000000000000000000000000900490506000600181111561016257fe5b60ff168360ff1614156102805760018760405160200180807f19457468657265756d205369676e6564204d6573736167653a0a333200000000815250601c0182600019166000191681526020019150506040516020818303038152906040526040518082805190602001908083835b6020831015156101f657805182526020820191506020810190506020830392506101d1565b6001836020036101000a038019825116818451168082178552505050505050905001915050604051809103902082876020015188604001516040516000815260200160405260405161024b94939291906104c6565b60206040516020810390808403906000865af115801561026f573d6000803e3d6000fd5b505050602060405103519150610335565b60018081111561028c57fe5b60ff168360ff1614156102f9576001878287602001518860400151604051600081526020016040526040516102c494939291906104c6565b60206040516020810390808403906000865af11580156102e8573d6000803e3d6000fd5b505050602060405103519150610334565b6040517f08c379a000000000000000000000000000000000000000000000000000000000815260040161032b9061050b565b60405180910390fd5b5b8173ffffffffffffffffffffffffffffffffffffffff168673ffffffffffffffffffffffffffffffffffffffff161493505050509392505050565b600061037c823561057b565b905092915050565b6000610390823561059b565b905092915050565b6000606082840312156103aa57600080fd5b6103b4606061052b565b905060006103c484828501610384565b60008301525060206103d884828501610384565b60208301525060406103ec84828501610384565b60408301525092915050565b600080600060a0848603121561040d57600080fd5b600061041b86828701610384565b935050602061042c86828701610370565b925050604061043d86828701610398565b9150509250925092565b61045081610558565b82525050565b61045f81610564565b82525050565b6000601382527f494e56414c49445f5349474e5f4d4554484f44000000000000000000000000006020830152604082019050919050565b6104a58161056e565b82525050565b60006020820190506104c06000830184610447565b92915050565b60006080820190506104db6000830187610456565b6104e8602083018661049c565b6104f56040830185610456565b6105026060830184610456565b95945050505050565b6000602082019050818103600083015261052481610465565b9050919050565b6000604051905081810181811067ffffffffffffffff8211171561054e57600080fd5b8060405250919050565b60008115159050919050565b6000819050919050565b600060ff82169050919050565b600073ffffffffffffffffffffffffffffffffffffffff82169050919050565b60008190509190505600a265627a7a7230582008dcf598fe8e30776b651b4502bd7e7429f99dcd448c005083dc22c4462665466c6578706572696d656e74616cf50037",
  "source": "pragma solidity 0.4.24;\r\npragma experimental ABIEncoderV2;\r\n\r\nimport \"../lib/LibSignature.sol\";\r\n\r\n// Test wrapper\r\n\r\ncontract TestSignature is LibSignature {\r\n    function isValidSignaturePublic(bytes32 hash, address addr, OrderSignature orderSignature)\r\n        public\r\n        pure\r\n        returns (bool)\r\n    {\r\n        return isValidSignature(hash, addr, orderSignature);\r\n    }\r\n}",
  "sourcePath": "/home/mohit/Desktop/dexhigh/countbapp/contracts/helper/TestSignature.sol",
  "compiler": {
    "name": "solc",
    "version": "0.4.24+commit.e67f0147.Emscripten.clang"
  },
  "schemaVersion": "3.3.1",
  "updatedAt": "2020-11-05T23:23:08.736Z",
  "devdoc": {
    "methods": {}
  },
  "userdoc": {
    "methods": {}
  }
}